{
  "contractName": "Collections",
  "abi": [
    {
      "inputs": [
        {
          "internalType": "address",
          "name": "ownerAddress",
          "type": "address"
        },
        {
          "internalType": "address",
          "name": "smartdot",
          "type": "address"
        }
      ],
      "stateMutability": "nonpayable",
      "type": "constructor"
    },
    {
      "anonymous": false,
      "inputs": [
        {
          "indexed": true,
          "internalType": "int256",
          "name": "latitude",
          "type": "int256"
        },
        {
          "indexed": true,
          "internalType": "int256",
          "name": "longitude",
          "type": "int256"
        },
        {
          "indexed": true,
          "internalType": "address",
          "name": "owner",
          "type": "address"
        },
        {
          "indexed": false,
          "internalType": "uint256",
          "name": "itemID",
          "type": "uint256"
        }
      ],
      "name": "AddItems",
      "type": "event"
    },
    {
      "anonymous": false,
      "inputs": [
        {
          "indexed": true,
          "internalType": "uint256",
          "name": "parentID",
          "type": "uint256"
        },
        {
          "indexed": false,
          "internalType": "uint256",
          "name": "dateCreation",
          "type": "uint256"
        },
        {
          "indexed": false,
          "internalType": "string",
          "name": "description",
          "type": "string"
        }
      ],
      "name": "AddRecord",
      "type": "event"
    },
    {
      "inputs": [
        {
          "internalType": "uint256",
          "name": "",
          "type": "uint256"
        }
      ],
      "name": "collections",
      "outputs": [
        {
          "internalType": "string",
          "name": "",
          "type": "string"
        }
      ],
      "stateMutability": "view",
      "type": "function"
    },
    {
      "inputs": [],
      "name": "geoMultiplier",
      "outputs": [
        {
          "internalType": "int256",
          "name": "",
          "type": "int256"
        }
      ],
      "stateMutability": "view",
      "type": "function"
    },
    {
      "inputs": [
        {
          "internalType": "uint256",
          "name": "",
          "type": "uint256"
        }
      ],
      "name": "items",
      "outputs": [
        {
          "internalType": "uint256",
          "name": "",
          "type": "uint256"
        }
      ],
      "stateMutability": "view",
      "type": "function"
    },
    {
      "inputs": [
        {
          "internalType": "uint256",
          "name": "",
          "type": "uint256"
        }
      ],
      "name": "mapItems",
      "outputs": [
        {
          "internalType": "uint256",
          "name": "collectionID",
          "type": "uint256"
        },
        {
          "internalType": "string",
          "name": "nameItem",
          "type": "string"
        },
        {
          "internalType": "string",
          "name": "ipfsCID",
          "type": "string"
        },
        {
          "internalType": "string",
          "name": "ipfsFileName",
          "type": "string"
        },
        {
          "internalType": "string",
          "name": "description",
          "type": "string"
        },
        {
          "internalType": "uint256",
          "name": "blockNumber",
          "type": "uint256"
        },
        {
          "internalType": "uint256",
          "name": "createDate",
          "type": "uint256"
        },
        {
          "internalType": "int256",
          "name": "latitude",
          "type": "int256"
        },
        {
          "internalType": "int256",
          "name": "longitude",
          "type": "int256"
        },
        {
          "internalType": "bool",
          "name": "isActive",
          "type": "bool"
        }
      ],
      "stateMutability": "view",
      "type": "function"
    },
    {
      "inputs": [],
      "name": "owner",
      "outputs": [
        {
          "internalType": "address",
          "name": "",
          "type": "address"
        }
      ],
      "stateMutability": "view",
      "type": "function"
    },
    {
      "inputs": [
        {
          "internalType": "string",
          "name": "nameCollection",
          "type": "string"
        }
      ],
      "name": "addCollection",
      "outputs": [
        {
          "internalType": "bool",
          "name": "",
          "type": "bool"
        }
      ],
      "stateMutability": "nonpayable",
      "type": "function"
    },
    {
      "inputs": [
        {
          "internalType": "uint256",
          "name": "itemID",
          "type": "uint256"
        },
        {
          "internalType": "bool",
          "name": "isActive",
          "type": "bool"
        }
      ],
      "name": "setItemIsActive",
      "outputs": [],
      "stateMutability": "nonpayable",
      "type": "function"
    },
    {
      "inputs": [
        {
          "internalType": "uint256",
          "name": "collectionID",
          "type": "uint256"
        },
        {
          "internalType": "string",
          "name": "nameItem",
          "type": "string"
        },
        {
          "internalType": "string",
          "name": "ipfsCID",
          "type": "string"
        },
        {
          "internalType": "string",
          "name": "ipfsFileName",
          "type": "string"
        },
        {
          "internalType": "string",
          "name": "description",
          "type": "string"
        },
        {
          "internalType": "int256",
          "name": "latitude",
          "type": "int256"
        },
        {
          "internalType": "int256",
          "name": "longitude",
          "type": "int256"
        }
      ],
      "name": "addItem",
      "outputs": [
        {
          "internalType": "bool",
          "name": "",
          "type": "bool"
        }
      ],
      "stateMutability": "nonpayable",
      "type": "function"
    },
    {
      "inputs": [
        {
          "internalType": "uint256",
          "name": "itemID",
          "type": "uint256"
        },
        {
          "internalType": "uint256",
          "name": "newCollectionID",
          "type": "uint256"
        }
      ],
      "name": "changeCollection",
      "outputs": [
        {
          "internalType": "bool",
          "name": "",
          "type": "bool"
        }
      ],
      "stateMutability": "nonpayable",
      "type": "function"
    },
    {
      "inputs": [
        {
          "internalType": "uint256",
          "name": "parentID",
          "type": "uint256"
        },
        {
          "internalType": "uint256",
          "name": "dateCreation",
          "type": "uint256"
        },
        {
          "internalType": "string",
          "name": "description",
          "type": "string"
        }
      ],
      "name": "addRecord",
      "outputs": [
        {
          "internalType": "bool",
          "name": "",
          "type": "bool"
        }
      ],
      "stateMutability": "nonpayable",
      "type": "function"
    },
    {
      "inputs": [],
      "name": "showItemsAmount",
      "outputs": [
        {
          "internalType": "uint256",
          "name": "",
          "type": "uint256"
        }
      ],
      "stateMutability": "view",
      "type": "function"
    },
    {
      "inputs": [],
      "name": "showCollectionsAmount",
      "outputs": [
        {
          "internalType": "uint256",
          "name": "",
          "type": "uint256"
        }
      ],
      "stateMutability": "view",
      "type": "function"
    },
    {
      "inputs": [],
      "name": "showRecordsAmount",
      "outputs": [
        {
          "internalType": "uint256",
          "name": "",
          "type": "uint256"
        }
      ],
      "stateMutability": "view",
      "type": "function"
    },
    {
      "inputs": [],
      "name": "showAllRecords",
      "outputs": [
        {
          "components": [
            {
              "internalType": "uint256",
              "name": "parentID",
              "type": "uint256"
            },
            {
              "internalType": "uint256",
              "name": "blockNumber",
              "type": "uint256"
            }
          ],
          "internalType": "struct Collections.Record[]",
          "name": "",
          "type": "tuple[]"
        }
      ],
      "stateMutability": "view",
      "type": "function"
    },
    {
      "inputs": [
        {
          "internalType": "uint256",
          "name": "parentID",
          "type": "uint256"
        }
      ],
      "name": "findRecords",
      "outputs": [
        {
          "internalType": "uint256[]",
          "name": "",
          "type": "uint256[]"
        }
      ],
      "stateMutability": "view",
      "type": "function"
    },
    {
      "inputs": [
        {
          "internalType": "uint256",
          "name": "itemID",
          "type": "uint256"
        }
      ],
      "name": "showItem",
      "outputs": [
        {
          "components": [
            {
              "internalType": "uint256",
              "name": "collectionID",
              "type": "uint256"
            },
            {
              "internalType": "string",
              "name": "nameItem",
              "type": "string"
            },
            {
              "internalType": "string",
              "name": "ipfsCID",
              "type": "string"
            },
            {
              "internalType": "string",
              "name": "ipfsFileName",
              "type": "string"
            },
            {
              "internalType": "string",
              "name": "description",
              "type": "string"
            },
            {
              "internalType": "uint256",
              "name": "blockNumber",
              "type": "uint256"
            },
            {
              "internalType": "uint256",
              "name": "createDate",
              "type": "uint256"
            },
            {
              "internalType": "int256",
              "name": "latitude",
              "type": "int256"
            },
            {
              "internalType": "int256",
              "name": "longitude",
              "type": "int256"
            },
            {
              "internalType": "bool",
              "name": "isActive",
              "type": "bool"
            }
          ],
          "internalType": "struct Items.Item",
          "name": "",
          "type": "tuple"
        }
      ],
      "stateMutability": "view",
      "type": "function"
    },
    {
      "inputs": [
        {
          "internalType": "uint256",
          "name": "collectionID",
          "type": "uint256"
        }
      ],
      "name": "showCollectionName",
      "outputs": [
        {
          "internalType": "string",
          "name": "",
          "type": "string"
        }
      ],
      "stateMutability": "view",
      "type": "function"
    }
  ],
  "bytecode": "0x608060405266038d7ea4c680006006553480156200001c57600080fd5b506040516200254d3803806200254d833981810160405281019062000042919062000136565b81600160006101000a81548173ffffffffffffffffffffffffffffffffffffffff021916908373ffffffffffffffffffffffffffffffffffffffff16021790555080600260006101000a81548173ffffffffffffffffffffffffffffffffffffffff021916908373ffffffffffffffffffffffffffffffffffffffff16021790555050506200017d565b600080fd5b600073ffffffffffffffffffffffffffffffffffffffff82169050919050565b6000620000fe82620000d1565b9050919050565b6200011081620000f1565b81146200011c57600080fd5b50565b600081519050620001308162000105565b92915050565b6000806040838503121562000150576200014f620000cc565b5b600062000160858286016200011f565b925050602062000173858286016200011f565b9150509250929050565b6123c0806200018d6000396000f3fe608060405234801561001057600080fd5b506004361061010b5760003560e01c80638825e111116100a2578063b92ddedc11610071578063b92ddedc146102e2578063bfb231d214610300578063eb380d5f14610330578063f18838bf14610360578063fdbda0ec146103995761010b565b80638825e111146102485780638959ed2d146102785780638da5cb5b146102a8578063ac0bd9fd146102c65761010b565b806337c66e24116100de57806337c66e24146101885780634779cb90146101b8578063544ebb93146101e8578063592e0355146102185761010b565b806314d1426a14610110578063291756a91461012e5780632cdc602c1461014c5780633353cea61461016a575b600080fd5b6101186103c9565b6040516101259190611537565b60405180910390f35b6101366103d6565b604051610143919061156b565b60405180910390f35b6101546103dc565b6040516101619190611537565b60405180910390f35b6101726103e9565b60405161017f9190611537565b60405180910390f35b6101a2600480360381019061019d91906115c6565b6103f6565b6040516101af91906116b1565b60405180910390f35b6101d260048036038101906101cd91906116d3565b6104f9565b6040516101df919061172e565b60405180910390f35b61020260048036038101906101fd91906115c6565b610607565b60405161020f91906118ef565b60405180910390f35b610232600480360381019061022d9190611a46565b6108c9565b60405161023f919061172e565b60405180910390f35b610262600480360381019061025d9190611abb565b6109f1565b60405161026f919061172e565b60405180910390f35b610292600480360381019061028d9190611bcd565b610d8b565b60405161029f919061172e565b60405180910390f35b6102b0610f16565b6040516102bd9190611c7d565b60405180910390f35b6102e060048036038101906102db9190611cc4565b610f3c565b005b6102ea611055565b6040516102f79190611de2565b60405180910390f35b61031a600480360381019061031591906115c6565b6110c8565b6040516103279190611537565b60405180910390f35b61034a600480360381019061034591906115c6565b6110ec565b6040516103579190611e4e565b60405180910390f35b61037a600480360381019061037591906115c6565b61119c565b6040516103909a99989796959493929190611e70565b60405180910390f35b6103b360048036038101906103ae91906115c6565b61141d565b6040516103c09190611e4e565b60405180910390f35b6000600380549050905090565b60065481565b6000600580549050905090565b6000600480549050905090565b6060600060038054905067ffffffffffffffff8111156104195761041861191b565b5b6040519080825280602002602001820160405280156104475781602001602082028036833780820191505090505b5090506000805b6003805490508110156104ee5784600382815481106104705761046f611f28565b5b906000526020600020906002020160000154036104db576003818154811061049b5761049a611f28565b5b9060005260206000209060020201600101548383815181106104c0576104bf611f28565b5b60200260200101818152505081806104d790611f86565b9250505b80806104e690611f86565b91505061044e565b508192505050919050565b60003373ffffffffffffffffffffffffffffffffffffffff16600160009054906101000a900473ffffffffffffffffffffffffffffffffffffffff1673ffffffffffffffffffffffffffffffffffffffff1614806105a457503373ffffffffffffffffffffffffffffffffffffffff16600260009054906101000a900473ffffffffffffffffffffffffffffffffffffffff1673ffffffffffffffffffffffffffffffffffffffff16145b6105e3576040517f08c379a00000000000000000000000000000000000000000000000000000000081526004016105da9061201a565b60405180910390fd5b81600080858152602001908152602001600020600001819055506001905092915050565b61060f6114c9565b600080838152602001908152602001600020604051806101400160405290816000820154815260200160018201805461064790612069565b80601f016020809104026020016040519081016040528092919081815260200182805461067390612069565b80156106c05780601f10610695576101008083540402835291602001916106c0565b820191906000526020600020905b8154815290600101906020018083116106a357829003601f168201915b505050505081526020016002820180546106d990612069565b80601f016020809104026020016040519081016040528092919081815260200182805461070590612069565b80156107525780601f1061072757610100808354040283529160200191610752565b820191906000526020600020905b81548152906001019060200180831161073557829003601f168201915b5050505050815260200160038201805461076b90612069565b80601f016020809104026020016040519081016040528092919081815260200182805461079790612069565b80156107e45780601f106107b9576101008083540402835291602001916107e4565b820191906000526020600020905b8154815290600101906020018083116107c757829003601f168201915b505050505081526020016004820180546107fd90612069565b80601f016020809104026020016040519081016040528092919081815260200182805461082990612069565b80156108765780601f1061084b57610100808354040283529160200191610876565b820191906000526020600020905b81548152906001019060200180831161085957829003601f168201915b50505050508152602001600582015481526020016006820154815260200160078201548152602001600882015481526020016009820160009054906101000a900460ff1615151515815250509050919050565b60003373ffffffffffffffffffffffffffffffffffffffff16600160009054906101000a900473ffffffffffffffffffffffffffffffffffffffff1673ffffffffffffffffffffffffffffffffffffffff16148061097457503373ffffffffffffffffffffffffffffffffffffffff16600260009054906101000a900473ffffffffffffffffffffffffffffffffffffffff1673ffffffffffffffffffffffffffffffffffffffff16145b6109b3576040517f08c379a00000000000000000000000000000000000000000000000000000000081526004016109aa9061201a565b60405180910390fd5b6005829080600181540180825580915050600190039060005260206000200160009091909190915090816109e79190612246565b5060019050919050565b60003373ffffffffffffffffffffffffffffffffffffffff16600160009054906101000a900473ffffffffffffffffffffffffffffffffffffffff1673ffffffffffffffffffffffffffffffffffffffff161480610a9c57503373ffffffffffffffffffffffffffffffffffffffff16600260009054906101000a900473ffffffffffffffffffffffffffffffffffffffff1673ffffffffffffffffffffffffffffffffffffffff16145b610adb576040517f08c379a0000000000000000000000000000000000000000000000000000000008152600401610ad29061201a565b60405180910390fd5b60006040518061014001604052808a81526020018981526020018881526020018781526020018681526020014381526020014281526020018581526020018481526020016001151581525090506000600260009054906101000a900473ffffffffffffffffffffffffffffffffffffffff1673ffffffffffffffffffffffffffffffffffffffff1663310aac696040518163ffffffff1660e01b8152600401602060405180830381865afa158015610b97573d6000803e3d6000fd5b505050506040513d601f19601f82011682018060405250810190610bbb919061232d565b905081600080838152602001908152602001600020600082015181600001556020820151816001019081610bef9190612246565b506040820151816002019081610c059190612246565b506060820151816003019081610c1b9190612246565b506080820151816004019081610c319190612246565b5060a0820151816005015560c0820151816006015560e0820151816007015561010082015181600801556101208201518160090160006101000a81548160ff021916908315150217905550905050600260009054906101000a900473ffffffffffffffffffffffffffffffffffffffff1673ffffffffffffffffffffffffffffffffffffffff166389defc046040518163ffffffff1660e01b8152600401600060405180830381600087803b158015610ce957600080fd5b505af1158015610cfd573d6000803e3d6000fd5b5050505060048190806001815401808255809150506001900390600052602060002001600090919091909150553373ffffffffffffffffffffffffffffffffffffffff1684867f93d1229fe729c8a2874f7f1efc9688f74df75c62827f90366faf5eefb7c3e5c984604051610d729190611537565b60405180910390a4600192505050979650505050505050565b60003373ffffffffffffffffffffffffffffffffffffffff16600160009054906101000a900473ffffffffffffffffffffffffffffffffffffffff1673ffffffffffffffffffffffffffffffffffffffff161480610e3657503373ffffffffffffffffffffffffffffffffffffffff16600260009054906101000a900473ffffffffffffffffffffffffffffffffffffffff1673ffffffffffffffffffffffffffffffffffffffff16145b610e75576040517f08c379a0000000000000000000000000000000000000000000000000000000008152600401610e6c9061201a565b60405180910390fd5b60006040518060400160405280868152602001438152509050847fd26b033120c7125f197a7dcd03f437cb681a03afd6c8a02a91a37766f8e0b7b08585604051610ec092919061235a565b60405180910390a260038190806001815401808255809150506001900390600052602060002090600202016000909190919091506000820151816000015560208201518160010155505060019150509392505050565b600160009054906101000a900473ffffffffffffffffffffffffffffffffffffffff1681565b3373ffffffffffffffffffffffffffffffffffffffff16600160009054906101000a900473ffffffffffffffffffffffffffffffffffffffff1673ffffffffffffffffffffffffffffffffffffffff161480610fe557503373ffffffffffffffffffffffffffffffffffffffff16600260009054906101000a900473ffffffffffffffffffffffffffffffffffffffff1673ffffffffffffffffffffffffffffffffffffffff16145b611024576040517f08c379a000000000000000000000000000000000000000000000000000000000815260040161101b9061201a565b60405180910390fd5b8060008084815260200190815260200160002060090160006101000a81548160ff0219169083151502179055505050565b60606003805480602002602001604051908101604052809291908181526020016000905b828210156110bf57838290600052602060002090600202016040518060400160405290816000820154815260200160018201548152505081526020019060010190611079565b50505050905090565b600481815481106110d857600080fd5b906000526020600020016000915090505481565b60606005828154811061110257611101611f28565b5b90600052602060002001805461111790612069565b80601f016020809104026020016040519081016040528092919081815260200182805461114390612069565b80156111905780601f1061116557610100808354040283529160200191611190565b820191906000526020600020905b81548152906001019060200180831161117357829003601f168201915b50505050509050919050565b60006020528060005260406000206000915090508060000154908060010180546111c590612069565b80601f01602080910402602001604051908101604052809291908181526020018280546111f190612069565b801561123e5780601f106112135761010080835404028352916020019161123e565b820191906000526020600020905b81548152906001019060200180831161122157829003601f168201915b50505050509080600201805461125390612069565b80601f016020809104026020016040519081016040528092919081815260200182805461127f90612069565b80156112cc5780601f106112a1576101008083540402835291602001916112cc565b820191906000526020600020905b8154815290600101906020018083116112af57829003601f168201915b5050505050908060030180546112e190612069565b80601f016020809104026020016040519081016040528092919081815260200182805461130d90612069565b801561135a5780601f1061132f5761010080835404028352916020019161135a565b820191906000526020600020905b81548152906001019060200180831161133d57829003601f168201915b50505050509080600401805461136f90612069565b80601f016020809104026020016040519081016040528092919081815260200182805461139b90612069565b80156113e85780601f106113bd576101008083540402835291602001916113e8565b820191906000526020600020905b8154815290600101906020018083116113cb57829003601f168201915b5050505050908060050154908060060154908060070154908060080154908060090160009054906101000a900460ff1690508a565b6005818154811061142d57600080fd5b90600052602060002001600091509050805461144890612069565b80601f016020809104026020016040519081016040528092919081815260200182805461147490612069565b80156114c15780601f10611496576101008083540402835291602001916114c1565b820191906000526020600020905b8154815290600101906020018083116114a457829003601f168201915b505050505081565b6040518061014001604052806000815260200160608152602001606081526020016060815260200160608152602001600081526020016000815260200160008152602001600081526020016000151581525090565b6000819050919050565b6115318161151e565b82525050565b600060208201905061154c6000830184611528565b92915050565b6000819050919050565b61156581611552565b82525050565b6000602082019050611580600083018461155c565b92915050565b6000604051905090565b600080fd5b600080fd5b6115a38161151e565b81146115ae57600080fd5b50565b6000813590506115c08161159a565b92915050565b6000602082840312156115dc576115db611590565b5b60006115ea848285016115b1565b91505092915050565b600081519050919050565b600082825260208201905092915050565b6000819050602082019050919050565b6116288161151e565b82525050565b600061163a838361161f565b60208301905092915050565b6000602082019050919050565b600061165e826115f3565b61166881856115fe565b93506116738361160f565b8060005b838110156116a457815161168b888261162e565b975061169683611646565b925050600181019050611677565b5085935050505092915050565b600060208201905081810360008301526116cb8184611653565b905092915050565b600080604083850312156116ea576116e9611590565b5b60006116f8858286016115b1565b9250506020611709858286016115b1565b9150509250929050565b60008115159050919050565b61172881611713565b82525050565b6000602082019050611743600083018461171f565b92915050565b600081519050919050565b600082825260208201905092915050565b60005b83811015611783578082015181840152602081019050611768565b83811115611792576000848401525b50505050565b6000601f19601f8301169050919050565b60006117b482611749565b6117be8185611754565b93506117ce818560208601611765565b6117d781611798565b840191505092915050565b6117eb81611552565b82525050565b6117fa81611713565b82525050565b600061014083016000830151611819600086018261161f565b506020830151848203602086015261183182826117a9565b9150506040830151848203604086015261184b82826117a9565b9150506060830151848203606086015261186582826117a9565b9150506080830151848203608086015261187f82826117a9565b91505060a083015161189460a086018261161f565b5060c08301516118a760c086018261161f565b5060e08301516118ba60e08601826117e2565b506101008301516118cf6101008601826117e2565b506101208301516118e46101208601826117f1565b508091505092915050565b600060208201905081810360008301526119098184611800565b905092915050565b600080fd5b600080fd5b7f4e487b7100000000000000000000000000000000000000000000000000000000600052604160045260246000fd5b61195382611798565b810181811067ffffffffffffffff821117156119725761197161191b565b5b80604052505050565b6000611985611586565b9050611991828261194a565b919050565b600067ffffffffffffffff8211156119b1576119b061191b565b5b6119ba82611798565b9050602081019050919050565b82818337600083830152505050565b60006119e96119e484611996565b61197b565b905082815260208101848484011115611a0557611a04611916565b5b611a108482856119c7565b509392505050565b600082601f830112611a2d57611a2c611911565b5b8135611a3d8482602086016119d6565b91505092915050565b600060208284031215611a5c57611a5b611590565b5b600082013567ffffffffffffffff811115611a7a57611a79611595565b5b611a8684828501611a18565b91505092915050565b611a9881611552565b8114611aa357600080fd5b50565b600081359050611ab581611a8f565b92915050565b600080600080600080600060e0888a031215611ada57611ad9611590565b5b6000611ae88a828b016115b1565b975050602088013567ffffffffffffffff811115611b0957611b08611595565b5b611b158a828b01611a18565b965050604088013567ffffffffffffffff811115611b3657611b35611595565b5b611b428a828b01611a18565b955050606088013567ffffffffffffffff811115611b6357611b62611595565b5b611b6f8a828b01611a18565b945050608088013567ffffffffffffffff811115611b9057611b8f611595565b5b611b9c8a828b01611a18565b93505060a0611bad8a828b01611aa6565b92505060c0611bbe8a828b01611aa6565b91505092959891949750929550565b600080600060608486031215611be657611be5611590565b5b6000611bf4868287016115b1565b9350506020611c05868287016115b1565b925050604084013567ffffffffffffffff811115611c2657611c25611595565b5b611c3286828701611a18565b9150509250925092565b600073ffffffffffffffffffffffffffffffffffffffff82169050919050565b6000611c6782611c3c565b9050919050565b611c7781611c5c565b82525050565b6000602082019050611c926000830184611c6e565b92915050565b611ca181611713565b8114611cac57600080fd5b50565b600081359050611cbe81611c98565b92915050565b60008060408385031215611cdb57611cda611590565b5b6000611ce9858286016115b1565b9250506020611cfa85828601611caf565b9150509250929050565b600081519050919050565b600082825260208201905092915050565b6000819050602082019050919050565b604082016000820151611d46600085018261161f565b506020820151611d59602085018261161f565b50505050565b6000611d6b8383611d30565b60408301905092915050565b6000602082019050919050565b6000611d8f82611d04565b611d998185611d0f565b9350611da483611d20565b8060005b83811015611dd5578151611dbc8882611d5f565b9750611dc783611d77565b925050600181019050611da8565b5085935050505092915050565b60006020820190508181036000830152611dfc8184611d84565b905092915050565b600082825260208201905092915050565b6000611e2082611749565b611e2a8185611e04565b9350611e3a818560208601611765565b611e4381611798565b840191505092915050565b60006020820190508181036000830152611e688184611e15565b905092915050565b600061014082019050611e86600083018d611528565b8181036020830152611e98818c611e15565b90508181036040830152611eac818b611e15565b90508181036060830152611ec0818a611e15565b90508181036080830152611ed48189611e15565b9050611ee360a0830188611528565b611ef060c0830187611528565b611efd60e083018661155c565b611f0b61010083018561155c565b611f1961012083018461171f565b9b9a5050505050505050505050565b7f4e487b7100000000000000000000000000000000000000000000000000000000600052603260045260246000fd5b7f4e487b7100000000000000000000000000000000000000000000000000000000600052601160045260246000fd5b6000611f918261151e565b91507fffffffffffffffffffffffffffffffffffffffffffffffffffffffffffffffff8203611fc357611fc2611f57565b5b600182019050919050565b7f43616c6c6572206973206e6f7420746865206f776e6572000000000000000000600082015250565b6000612004601783611e04565b915061200f82611fce565b602082019050919050565b6000602082019050818103600083015261203381611ff7565b9050919050565b7f4e487b7100000000000000000000000000000000000000000000000000000000600052602260045260246000fd5b6000600282049050600182168061208157607f821691505b6020821081036120945761209361203a565b5b50919050565b60008190508160005260206000209050919050565b60006020601f8301049050919050565b600082821b905092915050565b6000600883026120fc7fffffffffffffffffffffffffffffffffffffffffffffffffffffffffffffffff826120bf565b61210686836120bf565b95508019841693508086168417925050509392505050565b6000819050919050565b600061214361213e6121398461151e565b61211e565b61151e565b9050919050565b6000819050919050565b61215d83612128565b6121716121698261214a565b8484546120cc565b825550505050565b600090565b612186612179565b612191818484612154565b505050565b5b818110156121b5576121aa60008261217e565b600181019050612197565b5050565b601f8211156121fa576121cb8161209a565b6121d4846120af565b810160208510156121e3578190505b6121f76121ef856120af565b830182612196565b50505b505050565b600082821c905092915050565b600061221d600019846008026121ff565b1980831691505092915050565b6000612236838361220c565b9150826002028217905092915050565b61224f82611749565b67ffffffffffffffff8111156122685761226761191b565b5b6122728254612069565b61227d8282856121b9565b600060209050601f8311600181146122b0576000841561229e578287015190505b6122a8858261222a565b865550612310565b601f1984166122be8661209a565b60005b828110156122e6578489015182556001820191506020850194506020810190506122c1565b8683101561230357848901516122ff601f89168261220c565b8355505b6001600288020188555050505b505050505050565b6000815190506123278161159a565b92915050565b60006020828403121561234357612342611590565b5b600061235184828501612318565b91505092915050565b600060408201905061236f6000830185611528565b81810360208301526123818184611e15565b9050939250505056fea2646970667358221220c69bb6f8d168fabd1a82c80e1da3ab0f5dcb0c976e9ed851b050dbb24988060764736f6c634300080f0033",
  "immutableReferences": {},
  "source": "// SPDX-License-Identifier: MIT\r\n\r\n/**\r\n * Token SmartDot (SDOT) created for project https://smartdot.xyz\r\n * The token is not intended for investment.\r\n * This is a technical token that will serve as a pass to use the project's application family.\r\n * \r\n * However, if you want to help the development of the project financially, \r\n * you can receive a certain amount of tokens. \r\n * To do this, you just need to send any number of coins MATIC to the address of this smart contract. \r\n * In response, the smart contract will credit your address with the appropriate number of tokens in a 1:1 ratio.\r\n * \r\n * Together we make the world a better place.\r\n */\r\n\r\n// Smartdot version 0.9.6\r\n// 30.08.2022 Alex Production\r\n\r\npragma solidity >=0.7.0 <0.9.0;\r\n\r\n\r\nabstract contract Context {\r\n    function _msgSender() internal view virtual returns (address) {\r\n        return msg.sender;\r\n    }\r\n\r\n    function _msgData() internal view virtual returns (bytes calldata) {\r\n        this; // silence state mutability warning without generating bytecode - see https://github.com/ethereum/solidity/issues/2691\r\n        return msg.data;\r\n    }\r\n}\r\n\r\n\r\nabstract contract Ownable is Context {\r\n    address private _owner;\r\n\r\n    event OwnershipTransferred(address indexed previousOwner, address indexed newOwner);\r\n\r\n    /**\r\n     * @dev Initializes the contract setting the deployer as the initial owner.\r\n     */\r\n    constructor() {\r\n        _transferOwnership(_msgSender());\r\n    }\r\n\r\n    /**\r\n     * @dev Throws if called by any account other than the owner.\r\n     */\r\n    modifier onlyOwner() {\r\n        _checkOwner();\r\n        _;\r\n    }\r\n\r\n    /**\r\n     * @dev Returns the address of the current owner.\r\n     */\r\n    function owner() public view virtual returns (address) {\r\n        return _owner;\r\n    }\r\n\r\n    /**\r\n     * @dev Throws if the sender is not the owner.\r\n     */\r\n    function _checkOwner() internal view virtual {\r\n        require(owner() == _msgSender(), \"Ownable: caller is not the owner\");\r\n    }\r\n\r\n\r\n    /**\r\n     * @dev Transfers ownership of the contract to a new account (`newOwner`).\r\n     * Can only be called by the current owner.\r\n     */\r\n    function transferOwnership(address newOwner) public virtual onlyOwner {\r\n        require(newOwner != address(0), \"Ownable: new owner is the zero address\");\r\n        _transferOwnership(newOwner);\r\n    }\r\n\r\n    /**\r\n     * @dev Transfers ownership of the contract to a new account (`newOwner`).\r\n     * Internal function without access restriction.\r\n     */\r\n    function _transferOwnership(address newOwner) internal virtual {\r\n        address oldOwner = _owner;\r\n        _owner = newOwner;\r\n        emit OwnershipTransferred(oldOwner, newOwner);\r\n    }\r\n}\r\n\r\n\r\ninterface IERC20 {\r\n    function totalSupply() external view returns (uint256);\r\n\r\n    function balanceOf(address account) external view returns (uint256);\r\n\r\n    function transfer(address recipient, uint256 amount) external returns (bool);\r\n\r\n    function allowance(address owner, address spender) external view returns (uint256);\r\n\r\n    function approve(address spender, uint256 amount) external returns (bool);\r\n\r\n    function transferFrom(address sender, address recipient, uint256 amount) external returns (bool);\r\n\r\n    event Transfer(address indexed from, address indexed to, uint256 value);\r\n\r\n    event Approval(address indexed owner, address indexed spender, uint256 value);\r\n}\r\n\r\n\r\ncontract ERC20 is Context, IERC20 {\r\n    mapping (address => uint256) private _balances;\r\n\r\n    mapping (address => mapping (address => uint256)) private _allowances;\r\n\r\n    uint256 private _totalSupply;\r\n\r\n    string private _name;\r\n    string private _symbol;\r\n\r\n    constructor (string memory name_, string memory symbol_) {\r\n        _name = name_;\r\n        _symbol = symbol_;\r\n    }\r\n\r\n    function name() public view virtual returns (string memory) {\r\n        return _name;\r\n    }\r\n\r\n    function symbol() public view virtual returns (string memory) {\r\n        return _symbol;\r\n    }\r\n\r\n    function decimals() public view virtual returns (uint8) {\r\n        return 18;\r\n    }\r\n\r\n    function totalSupply() public view virtual override returns (uint256) {\r\n        return _totalSupply;\r\n    }\r\n\r\n    function balanceOf(address account) public view virtual override returns (uint256) {\r\n        return _balances[account];\r\n    }\r\n\r\n    function transfer(address recipient, uint256 amount) public virtual override returns (bool) {\r\n        _transfer(_msgSender(), recipient, amount);\r\n        return true;\r\n    }\r\n\r\n    function allowance(address owner, address spender) public view virtual override returns (uint256) {\r\n        return _allowances[owner][spender];\r\n    }\r\n\r\n    function approve(address spender, uint256 amount) public virtual override returns (bool) {\r\n        _approve(_msgSender(), spender, amount);\r\n        return true;\r\n    }\r\n\r\n    function transferFrom(address sender, address recipient, uint256 amount) public virtual override returns (bool) {\r\n        _transfer(sender, recipient, amount);\r\n\r\n        uint256 currentAllowance = _allowances[sender][_msgSender()];\r\n        require(currentAllowance >= amount, \"ERC20: transfer amount exceeds allowance\");\r\n        _approve(sender, _msgSender(), currentAllowance - amount);\r\n\r\n        return true;\r\n    }\r\n\r\n    function increaseAllowance(address spender, uint256 addedValue) public virtual returns (bool) {\r\n        _approve(_msgSender(), spender, _allowances[_msgSender()][spender] + addedValue);\r\n        return true;\r\n    }\r\n\r\n    function decreaseAllowance(address spender, uint256 subtractedValue) public virtual returns (bool) {\r\n        uint256 currentAllowance = _allowances[_msgSender()][spender];\r\n        require(currentAllowance >= subtractedValue, \"ERC20: decreased allowance below zero\");\r\n        _approve(_msgSender(), spender, currentAllowance - subtractedValue);\r\n\r\n        return true;\r\n    }\r\n      function _transfer(address sender, address recipient, uint256 amount) internal virtual {\r\n        require(sender != address(0), \"ERC20: transfer from the zero address\");\r\n        require(recipient != address(0), \"ERC20: transfer to the zero address\");\r\n\r\n        _beforeTokenTransfer(sender, recipient, amount);\r\n\r\n        uint256 senderBalance = _balances[sender];\r\n        require(senderBalance >= amount, \"ERC20: transfer amount exceeds balance\");\r\n        _balances[sender] = senderBalance - amount;\r\n        _balances[recipient] += amount;\r\n\r\n        emit Transfer(sender, recipient, amount);\r\n    }\r\n\r\n    function _mint(address account, uint256 amount) internal virtual {\r\n        require(account != address(0), \"ERC20: mint to the zero address\");\r\n\r\n        _beforeTokenTransfer(address(0), account, amount);\r\n\r\n        _totalSupply += amount;\r\n        _balances[account] += amount;\r\n        emit Transfer(address(0), account, amount);\r\n    }\r\n\r\n    function _burn(address account, uint256 amount) internal virtual {\r\n        require(account != address(0), \"ERC20: burn from the zero address\");\r\n\r\n        _beforeTokenTransfer(account, address(0), amount);\r\n\r\n        uint256 accountBalance = _balances[account];\r\n        require(accountBalance >= amount, \"ERC20: burn amount exceeds balance\");\r\n        _balances[account] = accountBalance - amount;\r\n        _totalSupply -= amount;\r\n\r\n        emit Transfer(account, address(0), amount);\r\n    }\r\n\r\n    function _approve(address owner, address spender, uint256 amount) internal virtual {\r\n        require(owner != address(0), \"ERC20: approve from the zero address\");\r\n        require(spender != address(0), \"ERC20: approve to the zero address\");\r\n\r\n        _allowances[owner][spender] = amount;\r\n        emit Approval(owner, spender, amount);\r\n    }\r\n\r\n    function _beforeTokenTransfer(address from, address to, uint256 amount) internal virtual { }\r\n}\r\n\r\n\r\ncontract MyToken is ERC20, Ownable {\r\n    event Withdraw(address, uint256);\r\n    address myAddress = address(this);\r\n    mapping (address => uint) private whitelist;\r\n    uint public endDate = 1672531200; //1 January 2023\r\n    constructor() ERC20(\"SmartDot\", \"SDOT\") {\r\n\r\n    }\r\n\r\n    function addToWhiteList (address investor, uint amount) internal {\r\n        if (block.timestamp <= endDate) {\r\n            whitelist[investor] += amount;\r\n        }\r\n    }\r\n\r\n    function isInvestor(address investor) public view returns (uint) {\r\n        return whitelist[investor];\r\n    }\r\n\r\n    receive() external payable {\r\n        addToWhiteList(msg.sender, msg.value);\r\n        _mint(_msgSender(), msg.value);\r\n    }\r\n\r\n    fallback() external payable {\r\n        addToWhiteList(msg.sender, msg.value);\r\n        _mint(_msgSender(), msg.value);\r\n    }\r\n\r\n    function withdraw (uint _value) public onlyOwner {\r\n        address payable to = payable(owner());\r\n        require (myAddress.balance >= _value,\"Value is more than balance\");\r\n        to.transfer(_value);\r\n        emit Withdraw(_msgSender(), _value);\r\n\r\n    }\r\n}\r\n\r\n\r\ninterface Items {\r\n    struct Item {\r\n        uint collectionID;\r\n        string nameItem;\r\n        string ipfsCID;\r\n        string ipfsFileName;\r\n        string description;\r\n        uint blockNumber;\r\n        uint createDate;\r\n        int latitude;\r\n        int longitude;\r\n        bool isActive;\r\n\r\n    }\r\n}\r\n\r\n\r\n\r\ncontract Smartdot is Ownable, Items {\r\n    \r\n    event AddUsers(address indexed newUser);\r\n\r\n    uint private totalItems;\r\n    MyToken private token;\r\n    address payable public tokenAdress;\r\n    // first address - owner\r\n    // second address - personal collection contract for this owner\r\n    mapping(address => address) public mapCollections;\r\n    \r\n    mapping(address => bool) public mapContracts;\r\n\r\n    //uint - itemID\r\n    //address contract collections where stored item with itemID\r\n    mapping(uint => address) public itemsContract;  \r\n\r\n    modifier onlyContract() {\r\n        require(mapContracts[msg.sender]==true, \"Caller is not the collection contract\");\r\n        _;\r\n    }\r\n/*\r\n    constructor (){\r\n        token = new MyToken();\r\n        totalItems = 0;\r\n    }\r\n*/\r\n    constructor (address payable _tokenAddress){\r\n        tokenAdress = _tokenAddress;\r\n        token = MyToken(tokenAdress);\r\n        totalItems = 0;\r\n    }\r\n\r\n    function showYourBalance() public view returns (uint) {\r\n        return token.balanceOf(msg.sender);\r\n    }\r\n\r\n    function isInvestor() public view returns (uint) {\r\n        return token.isInvestor(msg.sender);\r\n    }\r\n\r\n    function getTotalItems() public view returns (uint) {\r\n        return totalItems;\r\n    }\r\n\r\n    function incTotalItems() public onlyContract {\r\n        itemsContract[totalItems] = _msgSender();\r\n        totalItems ++;\r\n    }\r\n\r\n    function newUser() public returns (bool){\r\n        require(mapCollections[msg.sender] == address(0), \"You are alredy have a contract\");\r\n        address newContract = address(new Collections(msg.sender, address(this)));\r\n        mapContracts[newContract]=true;\r\n        mapCollections[msg.sender]=newContract;\r\n        emit AddUsers(msg.sender);\r\n        return true;\r\n    }\r\n\r\n    function showContract() public view returns (address) {\r\n        return mapCollections[msg.sender];\r\n    }\r\n\r\n    function showItem(uint itemID) public view returns (Item memory) {\r\n        Collections contractCollections = Collections(itemsContract[itemID]); \r\n        return contractCollections.showItem(itemID);\r\n    }\r\n\r\n    function destructContract() public onlyOwner {\r\n        address payable to = payable(owner());\r\n        selfdestruct(to);\r\n    }\r\n\r\n\r\n}\r\n\r\n\r\ncontract Collections is Items {\r\n\r\n\r\n    event AddItems(int indexed latitude, int indexed longitude, address indexed owner, uint itemID);\r\n    event AddRecord(uint indexed parentID, uint dateCreation, string description);\r\n    mapping (uint => Item) public mapItems;\r\n\r\n    address public owner ;\r\n\r\n    Smartdot mainContract;\r\n\r\n    struct Record {\r\n        uint parentID;\r\n        uint blockNumber;\r\n    }\r\n\r\n    Record [] records;      //array of additional record contains block number event\r\n    uint [] public items;   //array storage globalID of items for search it in mapping mapItems\r\n    string [] public collections;\r\n    int public geoMultiplier = 10**15; // for storage geotags in integer type of data\r\n\r\n    modifier onlyOwner() {\r\n        require(owner == msg.sender || address(mainContract) == msg.sender, \"Caller is not the owner\");\r\n        _;\r\n    }\r\n\r\n    constructor(address ownerAddress, address smartdot) {\r\n        owner = ownerAddress;\r\n        mainContract = Smartdot(smartdot);\r\n    }\r\n\r\n    function addCollection(string memory nameCollection) public onlyOwner returns (bool) {\r\n        collections.push(nameCollection);\r\n        return true;\r\n    }\r\n\r\n    function setItemIsActive (uint itemID, bool isActive) public onlyOwner {\r\n        mapItems[itemID].isActive = isActive;\r\n    }\r\n\r\n    function addItem(uint collectionID, string memory nameItem, string memory ipfsCID, string memory ipfsFileName, string memory description, int latitude, int longitude) public onlyOwner returns (bool) {\r\n        Item memory tempData = Item({\r\n            collectionID: collectionID,\r\n            nameItem: nameItem,\r\n            ipfsCID: ipfsCID,\r\n            ipfsFileName: ipfsFileName,\r\n            description: description,\r\n            blockNumber: block.number,\r\n            createDate: block.timestamp,\r\n            latitude: latitude,\r\n            longitude: longitude,\r\n            isActive: true\r\n        });\r\n        uint resultID = mainContract.getTotalItems();\r\n        mapItems[resultID]=tempData;\r\n        mainContract.incTotalItems();\r\n        items.push(resultID);\r\n        emit AddItems(latitude, longitude, msg.sender, resultID);\r\n        return true;\r\n    }\r\n\r\n    function changeCollection(uint itemID, uint newCollectionID) public onlyOwner returns (bool) {\r\n        mapItems[itemID].collectionID = newCollectionID;\r\n        return true;\r\n    }\r\n\r\n    function addRecord(uint parentID, uint dateCreation, string memory description) public onlyOwner returns(bool) {\r\n        Record memory tempData = Record ({\r\n            parentID: parentID,\r\n            blockNumber: block.number\r\n        });\r\n        emit AddRecord(parentID, dateCreation, description);\r\n        records.push(tempData);\r\n        return true;\r\n    }\r\n\r\n    function showItemsAmount() public view returns (uint) {\r\n        return items.length;\r\n    }\r\n\r\n    function showCollectionsAmount() public view returns (uint) {\r\n        return collections.length;\r\n    }\r\n\r\n    function showRecordsAmount() public view returns (uint) {\r\n        return records.length;\r\n    }\r\n\r\n    function showAllRecords() public view returns (Record [] memory) {\r\n        return records;\r\n    }\r\n\r\n    function findRecords(uint parentID) public view returns (uint [] memory) {\r\n        uint [] memory tempData = new uint[](records.length);\r\n        uint count = 0;\r\n        for (uint i = 0; i < records.length; i ++){\r\n            if (records[i].parentID == parentID) {\r\n                tempData[count] = records[i].blockNumber;\r\n                count ++;\r\n            }\r\n        }\r\n        return tempData;\r\n    }\r\n\r\n    function showItem(uint itemID) public view returns (Item memory) {\r\n        return mapItems[itemID];\r\n    }\r\n\r\n    function showCollectionName(uint collectionID) public view returns (string memory) {\r\n        return collections[collectionID];\r\n    }\r\n\r\n}\r\n\r\n",
  "sourcePath": "D:\\solidity\\SmartDotApp\\contracts\\smartdot.sol",
  "compiler": {
    "name": "solc",
    "version": "0.8.15+commit.e14f2714.Emscripten.clang"
  },
  "schemaVersion": "3.4.8",
  "updatedAt": "2022-08-30T03:33:42.682Z",
  "devdoc": {
    "kind": "dev",
    "methods": {},
    "version": 1
  },
  "userdoc": {
    "kind": "user",
    "methods": {},
    "version": 1
  }
}