{
  "contractName": "Collections",
  "abi": [
    {
      "inputs": [
        {
          "internalType": "address",
          "name": "ownerAddress",
          "type": "address"
        },
        {
          "internalType": "address",
          "name": "smartdot",
          "type": "address"
        }
      ],
      "stateMutability": "nonpayable",
      "type": "constructor"
    },
    {
      "inputs": [
        {
          "internalType": "uint256",
          "name": "",
          "type": "uint256"
        }
      ],
      "name": "collections",
      "outputs": [
        {
          "internalType": "string",
          "name": "",
          "type": "string"
        }
      ],
      "stateMutability": "view",
      "type": "function"
    },
    {
      "inputs": [],
      "name": "geoMultiplier",
      "outputs": [
        {
          "internalType": "int256",
          "name": "",
          "type": "int256"
        }
      ],
      "stateMutability": "view",
      "type": "function"
    },
    {
      "inputs": [
        {
          "internalType": "uint256",
          "name": "",
          "type": "uint256"
        }
      ],
      "name": "items",
      "outputs": [
        {
          "internalType": "uint256",
          "name": "",
          "type": "uint256"
        }
      ],
      "stateMutability": "view",
      "type": "function"
    },
    {
      "inputs": [],
      "name": "owner",
      "outputs": [
        {
          "internalType": "address",
          "name": "",
          "type": "address"
        }
      ],
      "stateMutability": "view",
      "type": "function"
    },
    {
      "inputs": [
        {
          "internalType": "string",
          "name": "nameCollection",
          "type": "string"
        }
      ],
      "name": "addCollection",
      "outputs": [
        {
          "internalType": "bool",
          "name": "",
          "type": "bool"
        }
      ],
      "stateMutability": "nonpayable",
      "type": "function"
    },
    {
      "inputs": [
        {
          "internalType": "uint256",
          "name": "itemID",
          "type": "uint256"
        },
        {
          "internalType": "uint256",
          "name": "newCollectionID",
          "type": "uint256"
        }
      ],
      "name": "changeCollection",
      "outputs": [
        {
          "internalType": "bool",
          "name": "",
          "type": "bool"
        }
      ],
      "stateMutability": "nonpayable",
      "type": "function"
    },
    {
      "inputs": [
        {
          "internalType": "uint256",
          "name": "collectionID",
          "type": "uint256"
        },
        {
          "internalType": "string",
          "name": "nameItem",
          "type": "string"
        },
        {
          "internalType": "string",
          "name": "ipfsCID",
          "type": "string"
        },
        {
          "internalType": "string",
          "name": "ipfsFileName",
          "type": "string"
        },
        {
          "internalType": "string",
          "name": "description",
          "type": "string"
        },
        {
          "internalType": "int256",
          "name": "latitude",
          "type": "int256"
        },
        {
          "internalType": "int256",
          "name": "longitude",
          "type": "int256"
        }
      ],
      "name": "addItem",
      "outputs": [
        {
          "internalType": "uint256",
          "name": "",
          "type": "uint256"
        }
      ],
      "stateMutability": "nonpayable",
      "type": "function"
    },
    {
      "inputs": [
        {
          "internalType": "uint256",
          "name": "parentID",
          "type": "uint256"
        },
        {
          "internalType": "string",
          "name": "description",
          "type": "string"
        }
      ],
      "name": "addRecord",
      "outputs": [
        {
          "internalType": "bool",
          "name": "",
          "type": "bool"
        }
      ],
      "stateMutability": "nonpayable",
      "type": "function"
    },
    {
      "inputs": [],
      "name": "showItemsAmount",
      "outputs": [
        {
          "internalType": "uint256",
          "name": "",
          "type": "uint256"
        }
      ],
      "stateMutability": "view",
      "type": "function"
    },
    {
      "inputs": [],
      "name": "showCollectionsAmount",
      "outputs": [
        {
          "internalType": "uint256",
          "name": "",
          "type": "uint256"
        }
      ],
      "stateMutability": "view",
      "type": "function"
    },
    {
      "inputs": [
        {
          "internalType": "uint256",
          "name": "itemID",
          "type": "uint256"
        }
      ],
      "name": "showItem",
      "outputs": [
        {
          "components": [
            {
              "internalType": "address",
              "name": "ownerAddress",
              "type": "address"
            },
            {
              "internalType": "uint256",
              "name": "collectionID",
              "type": "uint256"
            },
            {
              "internalType": "string",
              "name": "nameItem",
              "type": "string"
            },
            {
              "internalType": "string",
              "name": "ipfsCID",
              "type": "string"
            },
            {
              "internalType": "string",
              "name": "ipfsFileName",
              "type": "string"
            },
            {
              "internalType": "string",
              "name": "description",
              "type": "string"
            },
            {
              "internalType": "uint256",
              "name": "blockNumber",
              "type": "uint256"
            },
            {
              "internalType": "uint256",
              "name": "dateTime",
              "type": "uint256"
            },
            {
              "internalType": "int256",
              "name": "latitude",
              "type": "int256"
            },
            {
              "internalType": "int256",
              "name": "longitude",
              "type": "int256"
            }
          ],
          "internalType": "struct Items.Item",
          "name": "",
          "type": "tuple"
        }
      ],
      "stateMutability": "view",
      "type": "function"
    },
    {
      "inputs": [
        {
          "internalType": "uint256",
          "name": "collectionID",
          "type": "uint256"
        }
      ],
      "name": "showCollectionName",
      "outputs": [
        {
          "internalType": "string",
          "name": "",
          "type": "string"
        }
      ],
      "stateMutability": "view",
      "type": "function"
    }
  ],
  "bytecode": "0x608060405266038d7ea4c680006004553480156200001c57600080fd5b5060405162001bab38038062001bab833981810160405281019062000042919062000135565b816000806101000a81548173ffffffffffffffffffffffffffffffffffffffff021916908373ffffffffffffffffffffffffffffffffffffffff16021790555080600160006101000a81548173ffffffffffffffffffffffffffffffffffffffff021916908373ffffffffffffffffffffffffffffffffffffffff16021790555050506200017c565b600080fd5b600073ffffffffffffffffffffffffffffffffffffffff82169050919050565b6000620000fd82620000d0565b9050919050565b6200010f81620000f0565b81146200011b57600080fd5b50565b6000815190506200012f8162000104565b92915050565b600080604083850312156200014f576200014e620000cb565b5b60006200015f858286016200011e565b925050602062000172858286016200011e565b9150509250929050565b611a1f806200018c6000396000f3fe608060405234801561001057600080fd5b50600436106100b45760003560e01c8063592e035511610071578063592e0355146101a35780638825e111146101d35780638da5cb5b14610203578063bfb231d214610221578063eb380d5f14610251578063fdbda0ec14610281576100b4565b8063291756a9146100b95780632cdc602c146100d75780633353cea6146100f55780634131d0e3146101135780634779cb9014610143578063544ebb9314610173575b600080fd5b6100c16102b1565b6040516100ce9190610b9e565b60405180910390f35b6100df6102b7565b6040516100ec9190610bd2565b60405180910390f35b6100fd6102c4565b60405161010a9190610bd2565b60405180910390f35b61012d60048036038101906101289190610d73565b61035f565b60405161013a9190610dea565b60405180910390f35b61015d60048036038101906101589190610e05565b610488565b60405161016a9190610dea565b60405180910390f35b61018d60048036038101906101889190610e45565b6105c0565b60405161019a9190611048565b60405180910390f35b6101bd60048036038101906101b8919061106a565b61070c565b6040516101ca9190610dea565b60405180910390f35b6101ed60048036038101906101e891906110df565b6107da565b6040516101fa9190610bd2565b60405180910390f35b61020b610950565b6040516102189190611200565b60405180910390f35b61023b60048036038101906102369190610e45565b610974565b6040516102489190610bd2565b60405180910390f35b61026b60048036038101906102669190610e45565b610998565b6040516102789190611265565b60405180910390f35b61029b60048036038101906102969190610e45565b610a48565b6040516102a89190611265565b60405180910390f35b60045481565b6000600380549050905090565b60003373ffffffffffffffffffffffffffffffffffffffff1660008054906101000a900473ffffffffffffffffffffffffffffffffffffffff1673ffffffffffffffffffffffffffffffffffffffff1614610354576040517f08c379a000000000000000000000000000000000000000000000000000000000815260040161034b906112d3565b60405180910390fd5b600280549050905090565b60003373ffffffffffffffffffffffffffffffffffffffff1660008054906101000a900473ffffffffffffffffffffffffffffffffffffffff1673ffffffffffffffffffffffffffffffffffffffff16146103ef576040517f08c379a00000000000000000000000000000000000000000000000000000000081526004016103e6906112d3565b60405180910390fd5b600160009054906101000a900473ffffffffffffffffffffffffffffffffffffffff1673ffffffffffffffffffffffffffffffffffffffff1663709821d984846040518363ffffffff1660e01b815260040161044c9291906112f3565b600060405180830381600087803b15801561046657600080fd5b505af115801561047a573d6000803e3d6000fd5b505050506001905092915050565b60003373ffffffffffffffffffffffffffffffffffffffff1660008054906101000a900473ffffffffffffffffffffffffffffffffffffffff1673ffffffffffffffffffffffffffffffffffffffff1614610518576040517f08c379a000000000000000000000000000000000000000000000000000000000815260040161050f906112d3565b60405180910390fd5b600160009054906101000a900473ffffffffffffffffffffffffffffffffffffffff1673ffffffffffffffffffffffffffffffffffffffff16634779cb9084846040518363ffffffff1660e01b8152600401610575929190611323565b6020604051808303816000875af1158015610594573d6000803e3d6000fd5b505050506040513d601f19601f820116820180604052508101906105b89190611378565b905092915050565b6105c8610b1c565b3373ffffffffffffffffffffffffffffffffffffffff1660008054906101000a900473ffffffffffffffffffffffffffffffffffffffff1673ffffffffffffffffffffffffffffffffffffffff1614610656576040517f08c379a000000000000000000000000000000000000000000000000000000000815260040161064d906112d3565b60405180910390fd5b600061066183610af4565b9050600160009054906101000a900473ffffffffffffffffffffffffffffffffffffffff1673ffffffffffffffffffffffffffffffffffffffff1663544ebb93826040518263ffffffff1660e01b81526004016106be9190610bd2565b600060405180830381865afa1580156106db573d6000803e3d6000fd5b505050506040513d6000823e3d601f19601f8201168201806040525081019061070491906115db565b915050919050565b60003373ffffffffffffffffffffffffffffffffffffffff1660008054906101000a900473ffffffffffffffffffffffffffffffffffffffff1673ffffffffffffffffffffffffffffffffffffffff161461079c576040517f08c379a0000000000000000000000000000000000000000000000000000000008152600401610793906112d3565b60405180910390fd5b6003829080600181540180825580915050600190039060005260206000200160009091909190915090816107d09190611830565b5060019050919050565b60003373ffffffffffffffffffffffffffffffffffffffff1660008054906101000a900473ffffffffffffffffffffffffffffffffffffffff1673ffffffffffffffffffffffffffffffffffffffff161461086a576040517f08c379a0000000000000000000000000000000000000000000000000000000008152600401610861906112d3565b60405180910390fd5b6000600160009054906101000a900473ffffffffffffffffffffffffffffffffffffffff1673ffffffffffffffffffffffffffffffffffffffff16638825e1118a8a8a8a8a8a8a6040518863ffffffff1660e01b81526004016108d39796959493929190611902565b6020604051808303816000875af11580156108f2573d6000803e3d6000fd5b505050506040513d601f19601f82011682018060405250810190610916919061198d565b9050600281908060018154018082558091505060019003906000526020600020016000909190919091505580915050979650505050505050565b60008054906101000a900473ffffffffffffffffffffffffffffffffffffffff1681565b6002818154811061098457600080fd5b906000526020600020016000915090505481565b6060600382815481106109ae576109ad6119ba565b5b9060005260206000200180546109c390611653565b80601f01602080910402602001604051908101604052809291908181526020018280546109ef90611653565b8015610a3c5780601f10610a1157610100808354040283529160200191610a3c565b820191906000526020600020905b815481529060010190602001808311610a1f57829003601f168201915b50505050509050919050565b60038181548110610a5857600080fd5b906000526020600020016000915090508054610a7390611653565b80601f0160208091040260200160405190810160405280929190818152602001828054610a9f90611653565b8015610aec5780601f10610ac157610100808354040283529160200191610aec565b820191906000526020600020905b815481529060010190602001808311610acf57829003601f168201915b505050505081565b600060028281548110610b0a57610b096119ba565b5b90600052602060002001549050919050565b604051806101400160405280600073ffffffffffffffffffffffffffffffffffffffff1681526020016000815260200160608152602001606081526020016060815260200160608152602001600081526020016000815260200160008152602001600081525090565b6000819050919050565b610b9881610b85565b82525050565b6000602082019050610bb36000830184610b8f565b92915050565b6000819050919050565b610bcc81610bb9565b82525050565b6000602082019050610be76000830184610bc3565b92915050565b6000604051905090565b600080fd5b600080fd5b610c0a81610bb9565b8114610c1557600080fd5b50565b600081359050610c2781610c01565b92915050565b600080fd5b600080fd5b6000601f19601f8301169050919050565b7f4e487b7100000000000000000000000000000000000000000000000000000000600052604160045260246000fd5b610c8082610c37565b810181811067ffffffffffffffff82111715610c9f57610c9e610c48565b5b80604052505050565b6000610cb2610bed565b9050610cbe8282610c77565b919050565b600067ffffffffffffffff821115610cde57610cdd610c48565b5b610ce782610c37565b9050602081019050919050565b82818337600083830152505050565b6000610d16610d1184610cc3565b610ca8565b905082815260208101848484011115610d3257610d31610c32565b5b610d3d848285610cf4565b509392505050565b600082601f830112610d5a57610d59610c2d565b5b8135610d6a848260208601610d03565b91505092915050565b60008060408385031215610d8a57610d89610bf7565b5b6000610d9885828601610c18565b925050602083013567ffffffffffffffff811115610db957610db8610bfc565b5b610dc585828601610d45565b9150509250929050565b60008115159050919050565b610de481610dcf565b82525050565b6000602082019050610dff6000830184610ddb565b92915050565b60008060408385031215610e1c57610e1b610bf7565b5b6000610e2a85828601610c18565b9250506020610e3b85828601610c18565b9150509250929050565b600060208284031215610e5b57610e5a610bf7565b5b6000610e6984828501610c18565b91505092915050565b600073ffffffffffffffffffffffffffffffffffffffff82169050919050565b6000610e9d82610e72565b9050919050565b610ead81610e92565b82525050565b610ebc81610bb9565b82525050565b600081519050919050565b600082825260208201905092915050565b60005b83811015610efc578082015181840152602081019050610ee1565b83811115610f0b576000848401525b50505050565b6000610f1c82610ec2565b610f268185610ecd565b9350610f36818560208601610ede565b610f3f81610c37565b840191505092915050565b610f5381610b85565b82525050565b600061014083016000830151610f726000860182610ea4565b506020830151610f856020860182610eb3565b5060408301518482036040860152610f9d8282610f11565b91505060608301518482036060860152610fb78282610f11565b91505060808301518482036080860152610fd18282610f11565b91505060a083015184820360a0860152610feb8282610f11565b91505060c083015161100060c0860182610eb3565b5060e083015161101360e0860182610eb3565b50610100830151611028610100860182610f4a565b5061012083015161103d610120860182610f4a565b508091505092915050565b600060208201905081810360008301526110628184610f59565b905092915050565b6000602082840312156110805761107f610bf7565b5b600082013567ffffffffffffffff81111561109e5761109d610bfc565b5b6110aa84828501610d45565b91505092915050565b6110bc81610b85565b81146110c757600080fd5b50565b6000813590506110d9816110b3565b92915050565b600080600080600080600060e0888a0312156110fe576110fd610bf7565b5b600061110c8a828b01610c18565b975050602088013567ffffffffffffffff81111561112d5761112c610bfc565b5b6111398a828b01610d45565b965050604088013567ffffffffffffffff81111561115a57611159610bfc565b5b6111668a828b01610d45565b955050606088013567ffffffffffffffff81111561118757611186610bfc565b5b6111938a828b01610d45565b945050608088013567ffffffffffffffff8111156111b4576111b3610bfc565b5b6111c08a828b01610d45565b93505060a06111d18a828b016110ca565b92505060c06111e28a828b016110ca565b91505092959891949750929550565b6111fa81610e92565b82525050565b600060208201905061121560008301846111f1565b92915050565b600082825260208201905092915050565b600061123782610ec2565b611241818561121b565b9350611251818560208601610ede565b61125a81610c37565b840191505092915050565b6000602082019050818103600083015261127f818461122c565b905092915050565b7f43616c6c6572206973206e6f7420746865206f776e6572000000000000000000600082015250565b60006112bd60178361121b565b91506112c882611287565b602082019050919050565b600060208201905081810360008301526112ec816112b0565b9050919050565b60006040820190506113086000830185610bc3565b818103602083015261131a818461122c565b90509392505050565b60006040820190506113386000830185610bc3565b6113456020830184610bc3565b9392505050565b61135581610dcf565b811461136057600080fd5b50565b6000815190506113728161134c565b92915050565b60006020828403121561138e5761138d610bf7565b5b600061139c84828501611363565b91505092915050565b600080fd5b600080fd5b6113b881610e92565b81146113c357600080fd5b50565b6000815190506113d5816113af565b92915050565b6000815190506113ea81610c01565b92915050565b60006114036113fe84610cc3565b610ca8565b90508281526020810184848401111561141f5761141e610c32565b5b61142a848285610ede565b509392505050565b600082601f83011261144757611446610c2d565b5b81516114578482602086016113f0565b91505092915050565b60008151905061146f816110b3565b92915050565b6000610140828403121561148c5761148b6113a5565b5b611497610140610ca8565b905060006114a7848285016113c6565b60008301525060206114bb848285016113db565b602083015250604082015167ffffffffffffffff8111156114df576114de6113aa565b5b6114eb84828501611432565b604083015250606082015167ffffffffffffffff81111561150f5761150e6113aa565b5b61151b84828501611432565b606083015250608082015167ffffffffffffffff81111561153f5761153e6113aa565b5b61154b84828501611432565b60808301525060a082015167ffffffffffffffff81111561156f5761156e6113aa565b5b61157b84828501611432565b60a08301525060c061158f848285016113db565b60c08301525060e06115a3848285016113db565b60e0830152506101006115b884828501611460565b610100830152506101206115ce84828501611460565b6101208301525092915050565b6000602082840312156115f1576115f0610bf7565b5b600082015167ffffffffffffffff81111561160f5761160e610bfc565b5b61161b84828501611475565b91505092915050565b7f4e487b7100000000000000000000000000000000000000000000000000000000600052602260045260246000fd5b6000600282049050600182168061166b57607f821691505b60208210810361167e5761167d611624565b5b50919050565b60008190508160005260206000209050919050565b60006020601f8301049050919050565b600082821b905092915050565b6000600883026116e67fffffffffffffffffffffffffffffffffffffffffffffffffffffffffffffffff826116a9565b6116f086836116a9565b95508019841693508086168417925050509392505050565b6000819050919050565b600061172d61172861172384610bb9565b611708565b610bb9565b9050919050565b6000819050919050565b61174783611712565b61175b61175382611734565b8484546116b6565b825550505050565b600090565b611770611763565b61177b81848461173e565b505050565b5b8181101561179f57611794600082611768565b600181019050611781565b5050565b601f8211156117e4576117b581611684565b6117be84611699565b810160208510156117cd578190505b6117e16117d985611699565b830182611780565b50505b505050565b600082821c905092915050565b6000611807600019846008026117e9565b1980831691505092915050565b600061182083836117f6565b9150826002028217905092915050565b61183982610ec2565b67ffffffffffffffff81111561185257611851610c48565b5b61185c8254611653565b6118678282856117a3565b600060209050601f83116001811461189a5760008415611888578287015190505b6118928582611814565b8655506118fa565b601f1984166118a886611684565b60005b828110156118d0578489015182556001820191506020850194506020810190506118ab565b868310156118ed57848901516118e9601f8916826117f6565b8355505b6001600288020188555050505b505050505050565b600060e082019050611917600083018a610bc3565b8181036020830152611929818961122c565b9050818103604083015261193d818861122c565b90508181036060830152611951818761122c565b90508181036080830152611965818661122c565b905061197460a0830185610b8f565b61198160c0830184610b8f565b98975050505050505050565b6000602082840312156119a3576119a2610bf7565b5b60006119b1848285016113db565b91505092915050565b7f4e487b7100000000000000000000000000000000000000000000000000000000600052603260045260246000fdfea2646970667358221220dc6a778b6f613a8c9af22230c5a99981e551395ceddc2f68d18bc936f5e11f8e64736f6c634300080f0033",
  "immutableReferences": {},
  "source": "// SPDX-License-Identifier: MIT\r\n\r\n/**\r\n * Token SmartDot (SDOT) created for project https://smartdot.xyz\r\n * The token is not intended for investment.\r\n * This is a technical token that will serve as a pass to use the project's application family.\r\n * \r\n * However, if you want to help the development of the project financially, \r\n * you can receive a certain amount of tokens. \r\n * To do this, you just need to send any number of coins MATIC to the address of this smart contract. \r\n * In response, the smart contract will credit your address with the appropriate number of tokens in a 1:1 ratio.\r\n * \r\n * Together we make the world a better place.\r\n */\r\n\r\n// Smartdot version 1.3\r\n// 12.08.2022 Alex Production\r\n\r\npragma solidity >=0.7.0 <0.9.0;\r\n\r\n\r\nabstract contract Context {\r\n    function _msgSender() internal view virtual returns (address) {\r\n        return msg.sender;\r\n    }\r\n\r\n    function _msgData() internal view virtual returns (bytes calldata) {\r\n        this; // silence state mutability warning without generating bytecode - see https://github.com/ethereum/solidity/issues/2691\r\n        return msg.data;\r\n    }\r\n}\r\n\r\n\r\nabstract contract Ownable is Context {\r\n    address private _owner;\r\n\r\n    event OwnershipTransferred(address indexed previousOwner, address indexed newOwner);\r\n\r\n    /**\r\n     * @dev Initializes the contract setting the deployer as the initial owner.\r\n     */\r\n    constructor() {\r\n        _transferOwnership(_msgSender());\r\n    }\r\n\r\n    /**\r\n     * @dev Throws if called by any account other than the owner.\r\n     */\r\n    modifier onlyOwner() {\r\n        _checkOwner();\r\n        _;\r\n    }\r\n\r\n    /**\r\n     * @dev Returns the address of the current owner.\r\n     */\r\n    function owner() public view virtual returns (address) {\r\n        return _owner;\r\n    }\r\n\r\n    /**\r\n     * @dev Throws if the sender is not the owner.\r\n     */\r\n    function _checkOwner() internal view virtual {\r\n        require(owner() == _msgSender(), \"Ownable: caller is not the owner\");\r\n    }\r\n\r\n\r\n    /**\r\n     * @dev Transfers ownership of the contract to a new account (`newOwner`).\r\n     * Can only be called by the current owner.\r\n     */\r\n    function transferOwnership(address newOwner) public virtual onlyOwner {\r\n        require(newOwner != address(0), \"Ownable: new owner is the zero address\");\r\n        _transferOwnership(newOwner);\r\n    }\r\n\r\n    /**\r\n     * @dev Transfers ownership of the contract to a new account (`newOwner`).\r\n     * Internal function without access restriction.\r\n     */\r\n    function _transferOwnership(address newOwner) internal virtual {\r\n        address oldOwner = _owner;\r\n        _owner = newOwner;\r\n        emit OwnershipTransferred(oldOwner, newOwner);\r\n    }\r\n}\r\n\r\n\r\ninterface IERC20 {\r\n    function totalSupply() external view returns (uint256);\r\n\r\n    function balanceOf(address account) external view returns (uint256);\r\n\r\n    function transfer(address recipient, uint256 amount) external returns (bool);\r\n\r\n    function allowance(address owner, address spender) external view returns (uint256);\r\n\r\n    function approve(address spender, uint256 amount) external returns (bool);\r\n\r\n    function transferFrom(address sender, address recipient, uint256 amount) external returns (bool);\r\n\r\n    event Transfer(address indexed from, address indexed to, uint256 value);\r\n\r\n    event Approval(address indexed owner, address indexed spender, uint256 value);\r\n}\r\n\r\n\r\ncontract ERC20 is Context, IERC20 {\r\n    mapping (address => uint256) private _balances;\r\n\r\n    mapping (address => mapping (address => uint256)) private _allowances;\r\n\r\n    uint256 private _totalSupply;\r\n\r\n    string private _name;\r\n    string private _symbol;\r\n\r\n    constructor (string memory name_, string memory symbol_) {\r\n        _name = name_;\r\n        _symbol = symbol_;\r\n    }\r\n\r\n    function name() public view virtual returns (string memory) {\r\n        return _name;\r\n    }\r\n\r\n    function symbol() public view virtual returns (string memory) {\r\n        return _symbol;\r\n    }\r\n\r\n    function decimals() public view virtual returns (uint8) {\r\n        return 18;\r\n    }\r\n\r\n    function totalSupply() public view virtual override returns (uint256) {\r\n        return _totalSupply;\r\n    }\r\n\r\n    function balanceOf(address account) public view virtual override returns (uint256) {\r\n        return _balances[account];\r\n    }\r\n\r\n    function transfer(address recipient, uint256 amount) public virtual override returns (bool) {\r\n        _transfer(_msgSender(), recipient, amount);\r\n        return true;\r\n    }\r\n\r\n    function allowance(address owner, address spender) public view virtual override returns (uint256) {\r\n        return _allowances[owner][spender];\r\n    }\r\n\r\n    function approve(address spender, uint256 amount) public virtual override returns (bool) {\r\n        _approve(_msgSender(), spender, amount);\r\n        return true;\r\n    }\r\n\r\n    function transferFrom(address sender, address recipient, uint256 amount) public virtual override returns (bool) {\r\n        _transfer(sender, recipient, amount);\r\n\r\n        uint256 currentAllowance = _allowances[sender][_msgSender()];\r\n        require(currentAllowance >= amount, \"ERC20: transfer amount exceeds allowance\");\r\n        _approve(sender, _msgSender(), currentAllowance - amount);\r\n\r\n        return true;\r\n    }\r\n\r\n    function increaseAllowance(address spender, uint256 addedValue) public virtual returns (bool) {\r\n        _approve(_msgSender(), spender, _allowances[_msgSender()][spender] + addedValue);\r\n        return true;\r\n    }\r\n\r\n    function decreaseAllowance(address spender, uint256 subtractedValue) public virtual returns (bool) {\r\n        uint256 currentAllowance = _allowances[_msgSender()][spender];\r\n        require(currentAllowance >= subtractedValue, \"ERC20: decreased allowance below zero\");\r\n        _approve(_msgSender(), spender, currentAllowance - subtractedValue);\r\n\r\n        return true;\r\n    }\r\n      function _transfer(address sender, address recipient, uint256 amount) internal virtual {\r\n        require(sender != address(0), \"ERC20: transfer from the zero address\");\r\n        require(recipient != address(0), \"ERC20: transfer to the zero address\");\r\n\r\n        _beforeTokenTransfer(sender, recipient, amount);\r\n\r\n        uint256 senderBalance = _balances[sender];\r\n        require(senderBalance >= amount, \"ERC20: transfer amount exceeds balance\");\r\n        _balances[sender] = senderBalance - amount;\r\n        _balances[recipient] += amount;\r\n\r\n        emit Transfer(sender, recipient, amount);\r\n    }\r\n\r\n    function _mint(address account, uint256 amount) internal virtual {\r\n        require(account != address(0), \"ERC20: mint to the zero address\");\r\n\r\n        _beforeTokenTransfer(address(0), account, amount);\r\n\r\n        _totalSupply += amount;\r\n        _balances[account] += amount;\r\n        emit Transfer(address(0), account, amount);\r\n    }\r\n\r\n    function _burn(address account, uint256 amount) internal virtual {\r\n        require(account != address(0), \"ERC20: burn from the zero address\");\r\n\r\n        _beforeTokenTransfer(account, address(0), amount);\r\n\r\n        uint256 accountBalance = _balances[account];\r\n        require(accountBalance >= amount, \"ERC20: burn amount exceeds balance\");\r\n        _balances[account] = accountBalance - amount;\r\n        _totalSupply -= amount;\r\n\r\n        emit Transfer(account, address(0), amount);\r\n    }\r\n\r\n    function _approve(address owner, address spender, uint256 amount) internal virtual {\r\n        require(owner != address(0), \"ERC20: approve from the zero address\");\r\n        require(spender != address(0), \"ERC20: approve to the zero address\");\r\n\r\n        _allowances[owner][spender] = amount;\r\n        emit Approval(owner, spender, amount);\r\n    }\r\n\r\n    function _beforeTokenTransfer(address from, address to, uint256 amount) internal virtual { }\r\n}\r\n\r\n\r\ncontract MyToken is ERC20, Ownable {\r\n    event Withdraw(address, uint256);\r\n    address myAddress = address(this);\r\n    mapping (address => uint) private whitelist;\r\n    uint public endDate = 1672531200; //1 January 2023\r\n    constructor() ERC20(\"SmartDot\", \"SDOT\") {\r\n\r\n    }\r\n\r\n    function addToWhiteList (address investor, uint amount) internal {\r\n        if (block.timestamp <= endDate) {\r\n            whitelist[investor] += amount;\r\n        }\r\n    }\r\n\r\n    function isInvestor(address investor) public view returns (uint) {\r\n        return whitelist[investor];\r\n    }\r\n\r\n    receive() external payable {\r\n        addToWhiteList(msg.sender, msg.value);\r\n        _mint(_msgSender(), msg.value);\r\n    }\r\n\r\n    fallback() external payable {\r\n        addToWhiteList(msg.sender, msg.value);\r\n        _mint(_msgSender(), msg.value);\r\n    }\r\n\r\n    function withdraw (uint _value) public onlyOwner {\r\n        address payable to = payable(owner());\r\n        require (myAddress.balance >= _value,\"Value is more than balance\");\r\n        to.transfer(_value);\r\n        emit Withdraw(_msgSender(), _value);\r\n\r\n    }\r\n}\r\n\r\n\r\n\r\n\r\ninterface Items {\r\n    struct Item {\r\n        address ownerAddress;\r\n        uint collectionID;\r\n        string nameItem;\r\n        string ipfsCID;\r\n        string ipfsFileName;\r\n        string description;\r\n        uint blockNumber;\r\n        uint dateTime;\r\n        int latitude;\r\n        int longitude;\r\n\r\n    }\r\n}\r\n\r\n\r\ncontract Smartdot is Ownable, Items {\r\n    \r\n    event addUsers(address indexed newUser);\r\n    event addItems(int indexed latitude, int indexed longitude, address indexed owner, uint itemID);\r\n    event additionalRecord(uint indexed parentID, string description);\r\n\r\n    uint public totalItems;\r\n    MyToken public token;\r\n    address payable public tokenAdress;\r\n    // first address - owner\r\n    // second address - personal collection contract for this owner\r\n    mapping(address => address) public mapCollections;\r\n    \r\n    mapping(address => bool) public mapContracts;\r\n\r\n    mapping (uint => Item) public items;\r\n\r\n    modifier onlyContract() {\r\n        require(mapContracts[msg.sender]==true, \"Caller is not the collection contract\");\r\n        _;\r\n    }\r\n/*\r\n    constructor (){\r\n        token = new MyToken();\r\n        totalItems = 0;\r\n    }\r\n*/\r\n    constructor (address payable _tokenAddress){\r\n        tokenAdress = _tokenAddress;\r\n        token = MyToken(tokenAdress);\r\n        totalItems = 0;\r\n    }\r\n\r\n    function showYourBalance() public view returns (uint) {\r\n        return token.balanceOf(msg.sender);\r\n    }\r\n\r\n    function isInvestor() public view returns (uint) {\r\n        return token.isInvestor(msg.sender);\r\n    }\r\n\r\n    function newUser() public returns (bool){\r\n        require(mapCollections[msg.sender] == address(0), \"You are alredy have a contract\");\r\n        address newContract = address(new Collections(msg.sender, address(this)));\r\n        mapContracts[newContract]=true;\r\n        mapCollections[msg.sender]=newContract;\r\n        emit addUsers(msg.sender);\r\n        return true;\r\n    }\r\n\r\n    function showContract() public view returns (address) {\r\n        return mapCollections[msg.sender];\r\n    }\r\n\r\n\r\n    function addItem(uint collectionID, string memory nameItem, string memory ipfsCID, string memory ipfsFileName, string memory description, int latitude, int longitude) public onlyContract returns (uint resultID) {\r\n        Item memory tempData = Item({\r\n            ownerAddress: address(msg.sender),\r\n            collectionID: collectionID,\r\n            nameItem: nameItem,\r\n            ipfsCID: ipfsCID,\r\n            ipfsFileName: ipfsFileName,\r\n            description: description,\r\n            blockNumber: block.number,\r\n            dateTime: block.timestamp,\r\n            latitude:latitude,\r\n            longitude:longitude\r\n        });\r\n        items[totalItems]=tempData;\r\n        resultID = totalItems;\r\n        totalItems ++;\r\n        emit addItems(latitude, longitude, msg.sender, resultID);\r\n        return resultID;\r\n    }\r\n\r\n    function showItem(uint itemID) public view returns (Item memory) {\r\n        return items[itemID];\r\n    }\r\n\r\n    function changeCollection(uint itemID, uint newCollectionID) public onlyContract returns (bool) {\r\n        require(items[itemID].ownerAddress == _msgSender(),\"You are not a owner of this item\");\r\n        items[itemID].collectionID = newCollectionID;\r\n        return true;\r\n    }\r\n\r\n    function getCollectionID(uint itemID) public view onlyContract returns (uint) {\r\n        return items[itemID].collectionID;\r\n    }\r\n\r\n    function addEventRecord(uint parentID, string memory description) public onlyContract {\r\n        require(items[parentID].ownerAddress == _msgSender(),\"You are not a owner of parent item\");\r\n        emit additionalRecord(parentID, description);\r\n    }\r\n\r\n    function destructContract() public onlyOwner {\r\n        address payable to = payable(owner());\r\n        selfdestruct(to);\r\n    }\r\n\r\n\r\n}\r\n\r\n\r\ncontract Collections is Items {\r\n\r\n    address public owner ;\r\n\r\n    Smartdot mainContract;\r\n\r\n    uint [] public items;    // uint - ID token from main contract mapping\r\n\r\n    string [] public collections;\r\n    int public geoMultiplier = 10**15; // for storage geotags in integer type of data\r\n\r\n    modifier onlyOwner() {\r\n        require(owner == msg.sender, \"Caller is not the owner\");\r\n        _;\r\n    }\r\n\r\n    constructor(address ownerAddress, address smartdot) {\r\n        owner = ownerAddress;\r\n        mainContract = Smartdot(smartdot);\r\n    }\r\n\r\n    function addCollection(string memory nameCollection) public onlyOwner returns (bool) {\r\n        collections.push(nameCollection);\r\n        return true;\r\n    }\r\n\r\n    function changeCollection(uint itemID, uint newCollectionID) public onlyOwner returns (bool) {\r\n        return mainContract.changeCollection(itemID, newCollectionID);\r\n    }\r\n\r\n    function addItem(\r\n        uint collectionID, \r\n        string memory nameItem, \r\n        string memory ipfsCID, \r\n        string memory ipfsFileName,\r\n        string memory description, \r\n        int latitude, \r\n        int longitude\r\n        ) public onlyOwner returns(uint) {\r\n        uint resultID = mainContract.addItem(collectionID, nameItem, ipfsCID, ipfsFileName, description, latitude, longitude);\r\n        items.push(resultID);\r\n        return resultID;\r\n    }\r\n\r\n    function addRecord(uint parentID, string memory description) public onlyOwner returns(bool) {\r\n        mainContract.addEventRecord(parentID, description);\r\n        return true;\r\n    }\r\n\r\n    function showItemsAmount() public view onlyOwner returns (uint) {\r\n        return items.length;\r\n    }\r\n\r\n    function showCollectionsAmount() public view returns (uint) {\r\n        return collections.length;\r\n    }\r\n\r\n    /*\r\n        dev \r\n        param itemID - index of local array items[]\r\n        return index in mapping items in main contract\r\n    */\r\n    function showItemMainID(uint itemID) internal view returns (uint) {\r\n        return items[itemID];\r\n    }\r\n\r\n    function showItem(uint itemID) public view onlyOwner returns (Item memory) {\r\n        uint globalID = showItemMainID(itemID);\r\n        return mainContract.showItem(globalID);\r\n    }\r\n\r\n    function showCollectionName(uint collectionID) public view returns (string memory) {\r\n        return collections[collectionID];\r\n    }\r\n\r\n}\r\n",
  "sourcePath": "D:\\solidity\\SmartDotApp\\contracts\\smartdot.sol",
  "compiler": {
    "name": "solc",
    "version": "0.8.15+commit.e14f2714.Emscripten.clang"
  },
  "schemaVersion": "3.4.8",
  "updatedAt": "2022-08-12T03:29:09.175Z",
  "devdoc": {
    "kind": "dev",
    "methods": {},
    "version": 1
  },
  "userdoc": {
    "kind": "user",
    "methods": {},
    "version": 1
  }
}