{
  "contractName": "Smartdot",
  "abi": [
    {
      "inputs": [
        {
          "internalType": "address payable",
          "name": "_tokenAddress",
          "type": "address"
        }
      ],
      "stateMutability": "nonpayable",
      "type": "constructor"
    },
    {
      "anonymous": false,
      "inputs": [
        {
          "indexed": true,
          "internalType": "address",
          "name": "previousOwner",
          "type": "address"
        },
        {
          "indexed": true,
          "internalType": "address",
          "name": "newOwner",
          "type": "address"
        }
      ],
      "name": "OwnershipTransferred",
      "type": "event"
    },
    {
      "anonymous": false,
      "inputs": [
        {
          "indexed": true,
          "internalType": "int256",
          "name": "latitude",
          "type": "int256"
        },
        {
          "indexed": true,
          "internalType": "int256",
          "name": "longitude",
          "type": "int256"
        },
        {
          "indexed": true,
          "internalType": "address",
          "name": "owner",
          "type": "address"
        },
        {
          "indexed": false,
          "internalType": "uint256",
          "name": "itemID",
          "type": "uint256"
        }
      ],
      "name": "addItems",
      "type": "event"
    },
    {
      "anonymous": false,
      "inputs": [
        {
          "indexed": true,
          "internalType": "address",
          "name": "newUser",
          "type": "address"
        }
      ],
      "name": "addUsers",
      "type": "event"
    },
    {
      "anonymous": false,
      "inputs": [
        {
          "indexed": true,
          "internalType": "address",
          "name": "owner",
          "type": "address"
        },
        {
          "indexed": true,
          "internalType": "uint256",
          "name": "parentID",
          "type": "uint256"
        },
        {
          "indexed": false,
          "internalType": "string",
          "name": "description",
          "type": "string"
        }
      ],
      "name": "additionalRecord",
      "type": "event"
    },
    {
      "inputs": [
        {
          "internalType": "uint256",
          "name": "",
          "type": "uint256"
        }
      ],
      "name": "items",
      "outputs": [
        {
          "internalType": "address",
          "name": "ownerAddress",
          "type": "address"
        },
        {
          "internalType": "uint256",
          "name": "collectionID",
          "type": "uint256"
        },
        {
          "internalType": "string",
          "name": "nameItem",
          "type": "string"
        },
        {
          "internalType": "string",
          "name": "ipfsCID",
          "type": "string"
        },
        {
          "internalType": "string",
          "name": "description",
          "type": "string"
        },
        {
          "internalType": "uint256",
          "name": "blockNumber",
          "type": "uint256"
        },
        {
          "internalType": "int256",
          "name": "latitude",
          "type": "int256"
        },
        {
          "internalType": "int256",
          "name": "longitude",
          "type": "int256"
        }
      ],
      "stateMutability": "view",
      "type": "function",
      "constant": true
    },
    {
      "inputs": [
        {
          "internalType": "address",
          "name": "",
          "type": "address"
        }
      ],
      "name": "mapCollections",
      "outputs": [
        {
          "internalType": "address",
          "name": "",
          "type": "address"
        }
      ],
      "stateMutability": "view",
      "type": "function",
      "constant": true
    },
    {
      "inputs": [
        {
          "internalType": "address",
          "name": "",
          "type": "address"
        }
      ],
      "name": "mapContracts",
      "outputs": [
        {
          "internalType": "bool",
          "name": "",
          "type": "bool"
        }
      ],
      "stateMutability": "view",
      "type": "function",
      "constant": true
    },
    {
      "inputs": [],
      "name": "owner",
      "outputs": [
        {
          "internalType": "address",
          "name": "",
          "type": "address"
        }
      ],
      "stateMutability": "view",
      "type": "function",
      "constant": true
    },
    {
      "inputs": [],
      "name": "token",
      "outputs": [
        {
          "internalType": "contract MyToken",
          "name": "",
          "type": "address"
        }
      ],
      "stateMutability": "view",
      "type": "function",
      "constant": true
    },
    {
      "inputs": [],
      "name": "tokenAdress",
      "outputs": [
        {
          "internalType": "address payable",
          "name": "",
          "type": "address"
        }
      ],
      "stateMutability": "view",
      "type": "function",
      "constant": true
    },
    {
      "inputs": [],
      "name": "totalItems",
      "outputs": [
        {
          "internalType": "uint256",
          "name": "",
          "type": "uint256"
        }
      ],
      "stateMutability": "view",
      "type": "function",
      "constant": true
    },
    {
      "inputs": [
        {
          "internalType": "address",
          "name": "newOwner",
          "type": "address"
        }
      ],
      "name": "transferOwnership",
      "outputs": [],
      "stateMutability": "nonpayable",
      "type": "function"
    },
    {
      "inputs": [],
      "name": "showYourBalance",
      "outputs": [
        {
          "internalType": "uint256",
          "name": "",
          "type": "uint256"
        }
      ],
      "stateMutability": "view",
      "type": "function",
      "constant": true
    },
    {
      "inputs": [],
      "name": "isInvestor",
      "outputs": [
        {
          "internalType": "uint256",
          "name": "",
          "type": "uint256"
        }
      ],
      "stateMutability": "view",
      "type": "function",
      "constant": true
    },
    {
      "inputs": [],
      "name": "newUser",
      "outputs": [
        {
          "internalType": "bool",
          "name": "",
          "type": "bool"
        }
      ],
      "stateMutability": "nonpayable",
      "type": "function"
    },
    {
      "inputs": [],
      "name": "showContract",
      "outputs": [
        {
          "internalType": "address",
          "name": "",
          "type": "address"
        }
      ],
      "stateMutability": "view",
      "type": "function",
      "constant": true
    },
    {
      "inputs": [
        {
          "internalType": "uint256",
          "name": "collectionID",
          "type": "uint256"
        },
        {
          "internalType": "string",
          "name": "nameItem",
          "type": "string"
        },
        {
          "internalType": "string",
          "name": "ipfsCID",
          "type": "string"
        },
        {
          "internalType": "string",
          "name": "description",
          "type": "string"
        },
        {
          "internalType": "int256",
          "name": "latitude",
          "type": "int256"
        },
        {
          "internalType": "int256",
          "name": "longitude",
          "type": "int256"
        }
      ],
      "name": "addItem",
      "outputs": [
        {
          "internalType": "uint256",
          "name": "resultID",
          "type": "uint256"
        }
      ],
      "stateMutability": "nonpayable",
      "type": "function"
    },
    {
      "inputs": [
        {
          "internalType": "uint256",
          "name": "itemID",
          "type": "uint256"
        }
      ],
      "name": "showItem",
      "outputs": [
        {
          "components": [
            {
              "internalType": "address",
              "name": "ownerAddress",
              "type": "address"
            },
            {
              "internalType": "uint256",
              "name": "collectionID",
              "type": "uint256"
            },
            {
              "internalType": "string",
              "name": "nameItem",
              "type": "string"
            },
            {
              "internalType": "string",
              "name": "ipfsCID",
              "type": "string"
            },
            {
              "internalType": "string",
              "name": "description",
              "type": "string"
            },
            {
              "internalType": "uint256",
              "name": "blockNumber",
              "type": "uint256"
            },
            {
              "internalType": "int256",
              "name": "latitude",
              "type": "int256"
            },
            {
              "internalType": "int256",
              "name": "longitude",
              "type": "int256"
            }
          ],
          "internalType": "struct Items.Item",
          "name": "",
          "type": "tuple"
        }
      ],
      "stateMutability": "view",
      "type": "function",
      "constant": true
    },
    {
      "inputs": [
        {
          "internalType": "uint256",
          "name": "itemID",
          "type": "uint256"
        },
        {
          "internalType": "uint256",
          "name": "newCollectionID",
          "type": "uint256"
        }
      ],
      "name": "changeCollection",
      "outputs": [
        {
          "internalType": "bool",
          "name": "",
          "type": "bool"
        }
      ],
      "stateMutability": "nonpayable",
      "type": "function"
    },
    {
      "inputs": [
        {
          "internalType": "uint256",
          "name": "itemID",
          "type": "uint256"
        }
      ],
      "name": "getCollectionID",
      "outputs": [
        {
          "internalType": "uint256",
          "name": "",
          "type": "uint256"
        }
      ],
      "stateMutability": "view",
      "type": "function",
      "constant": true
    },
    {
      "inputs": [
        {
          "internalType": "uint256",
          "name": "parentID",
          "type": "uint256"
        },
        {
          "internalType": "string",
          "name": "description",
          "type": "string"
        }
      ],
      "name": "addEventRecord",
      "outputs": [],
      "stateMutability": "nonpayable",
      "type": "function"
    }
  ],
  "bytecode": "0x60806040523480156200001157600080fd5b506040516200418a3803806200418a833981810160405281019062000037919062000240565b620000576200004b6200010a60201b60201c565b6200011260201b60201c565b80600360006101000a81548173ffffffffffffffffffffffffffffffffffffffff021916908373ffffffffffffffffffffffffffffffffffffffff160217905550600360009054906101000a900473ffffffffffffffffffffffffffffffffffffffff16600260006101000a81548173ffffffffffffffffffffffffffffffffffffffff021916908373ffffffffffffffffffffffffffffffffffffffff16021790555060006001819055505062000272565b600033905090565b60008060009054906101000a900473ffffffffffffffffffffffffffffffffffffffff169050816000806101000a81548173ffffffffffffffffffffffffffffffffffffffff021916908373ffffffffffffffffffffffffffffffffffffffff1602179055508173ffffffffffffffffffffffffffffffffffffffff168173ffffffffffffffffffffffffffffffffffffffff167f8be0079c531659141344cd1fd0a4f28419497f9722a3daafe3b4186f6b6457e060405160405180910390a35050565b600080fd5b600073ffffffffffffffffffffffffffffffffffffffff82169050919050565b60006200020882620001db565b9050919050565b6200021a81620001fb565b81146200022657600080fd5b50565b6000815190506200023a816200020f565b92915050565b600060208284031215620002595762000258620001d6565b5b6000620002698482850162000229565b91505092915050565b613f0880620002826000396000f3fe60806040523480156200001157600080fd5b5060043610620001245760003560e01c80637e765adf11620000b1578063b25e93ff116200007b578063b25e93ff1462000323578063bfb231d21462000345578063d13d94081462000382578063f2fde38b14620003b8578063fc0c546a14620003d85762000124565b80637e765adf14620002875780638c2663c814620002bd5780638da5cb5b14620002df57806397c9c5a614620003015762000124565b8063544ebb9311620000f3578063544ebb9314620001ed5780636cebad981462000223578063709821d914620002455780637614e75614620002655762000124565b8063086137ae14620001295780632799276d146200015f57806345f2e90214620001815780634779cb9014620001b7575b600080fd5b62000147600480360381019062000141919062001548565b620003fa565b60405162000156919062001597565b60405180910390f35b620001696200041a565b604051620001789190620015cf565b60405180910390f35b6200019f6004803603810190620001999190620017ba565b62000420565b604051620001ae9190620015cf565b60405180910390f35b620001d56004803603810190620001cf9190620018b3565b62000658565b604051620001e4919062001597565b60405180910390f35b6200020b6004803603810190620002059190620018fa565b620007c5565b6040516200021a919062001ac0565b60405180910390f35b6200022d62000a41565b6040516200023c919062001597565b60405180910390f35b6200026360048036038101906200025d919062001ae4565b62000c73565b005b6200026f62000d5e565b6040516200027e9190620015cf565b60405180910390f35b620002a560048036038101906200029f9190620018fa565b62000e06565b604051620002b49190620015cf565b60405180910390f35b620002c762000ebc565b604051620002d69190620015cf565b60405180910390f35b620002e962000f64565b604051620002f8919062001b5b565b60405180910390f35b6200030b62000f8d565b6040516200031a919062001b9d565b60405180910390f35b6200032d62000fb3565b6040516200033c919062001b5b565b60405180910390f35b6200036360048036038101906200035d9190620018fa565b6200101a565b6040516200037998979695949392919062001c1d565b60405180910390f35b620003a060048036038101906200039a919062001548565b62001232565b604051620003af919062001b5b565b60405180910390f35b620003d66004803603810190620003d0919062001548565b62001265565b005b620003e2620012ef565b604051620003f1919062001d2b565b60405180910390f35b60056020528060005260406000206000915054906101000a900460ff1681565b60015481565b600060011515600560003373ffffffffffffffffffffffffffffffffffffffff1673ffffffffffffffffffffffffffffffffffffffff16815260200190815260200160002060009054906101000a900460ff16151514620004b8576040517f08c379a0000000000000000000000000000000000000000000000000000000008152600401620004af9062001dbe565b60405180910390fd5b60006040518061010001604052803373ffffffffffffffffffffffffffffffffffffffff1681526020018981526020018881526020018781526020018681526020014381526020018581526020018481525090508060066000600154815260200190815260200160002060008201518160000160006101000a81548173ffffffffffffffffffffffffffffffffffffffff021916908373ffffffffffffffffffffffffffffffffffffffff1602179055506020820151816001015560408201518160020190816200058a91906200200c565b506060820151816003019081620005a291906200200c565b506080820151816004019081620005ba91906200200c565b5060a0820151816005015560c0820151816006015560e08201518160070155905050600154915060016000815480929190620005f69062002122565b91905055503373ffffffffffffffffffffffffffffffffffffffff1683857fe7af26d0fbba3807ddf410390399803683786ba2aba7987131a499d09696e55585604051620006459190620015cf565b60405180910390a4509695505050505050565b600060011515600560003373ffffffffffffffffffffffffffffffffffffffff1673ffffffffffffffffffffffffffffffffffffffff16815260200190815260200160002060009054906101000a900460ff16151514620006f0576040517f08c379a0000000000000000000000000000000000000000000000000000000008152600401620006e79062001dbe565b60405180910390fd5b620006fa62001315565b73ffffffffffffffffffffffffffffffffffffffff166006600085815260200190815260200160002060000160009054906101000a900473ffffffffffffffffffffffffffffffffffffffff1673ffffffffffffffffffffffffffffffffffffffff1614620007a0576040517f08c379a00000000000000000000000000000000000000000000000000000000081526004016200079790620021bf565b60405180910390fd5b8160066000858152602001908152602001600020600101819055506001905092915050565b620007cf62001466565b60066000838152602001908152602001600020604051806101000160405290816000820160009054906101000a900473ffffffffffffffffffffffffffffffffffffffff1673ffffffffffffffffffffffffffffffffffffffff1673ffffffffffffffffffffffffffffffffffffffff16815260200160018201548152602001600282018054620008609062001e0f565b80601f01602080910402602001604051908101604052809291908181526020018280546200088e9062001e0f565b8015620008df5780601f10620008b357610100808354040283529160200191620008df565b820191906000526020600020905b815481529060010190602001808311620008c157829003601f168201915b50505050508152602001600382018054620008fa9062001e0f565b80601f0160208091040260200160405190810160405280929190818152602001828054620009289062001e0f565b8015620009795780601f106200094d5761010080835404028352916020019162000979565b820191906000526020600020905b8154815290600101906020018083116200095b57829003601f168201915b50505050508152602001600482018054620009949062001e0f565b80601f0160208091040260200160405190810160405280929190818152602001828054620009c29062001e0f565b801562000a135780601f10620009e75761010080835404028352916020019162000a13565b820191906000526020600020905b815481529060010190602001808311620009f557829003601f168201915b5050505050815260200160058201548152602001600682015481526020016007820154815250509050919050565b60008073ffffffffffffffffffffffffffffffffffffffff16600460003373ffffffffffffffffffffffffffffffffffffffff1673ffffffffffffffffffffffffffffffffffffffff16815260200190815260200160002060009054906101000a900473ffffffffffffffffffffffffffffffffffffffff1673ffffffffffffffffffffffffffffffffffffffff161462000b13576040517f08c379a000000000000000000000000000000000000000000000000000000000815260040162000b0a9062002231565b60405180910390fd5b6000333060405162000b2590620014c1565b62000b3292919062002253565b604051809103906000f08015801562000b4f573d6000803e3d6000fd5b5090506001600560008373ffffffffffffffffffffffffffffffffffffffff1673ffffffffffffffffffffffffffffffffffffffff16815260200190815260200160002060006101000a81548160ff02191690831515021790555080600460003373ffffffffffffffffffffffffffffffffffffffff1673ffffffffffffffffffffffffffffffffffffffff16815260200190815260200160002060006101000a81548173ffffffffffffffffffffffffffffffffffffffff021916908373ffffffffffffffffffffffffffffffffffffffff1602179055503373ffffffffffffffffffffffffffffffffffffffff167f0434372237c7c6e1607b43e83694a9d949c4f83a878fe2091bac214e317b9abd60405160405180910390a2600191505090565b60011515600560003373ffffffffffffffffffffffffffffffffffffffff1673ffffffffffffffffffffffffffffffffffffffff16815260200190815260200160002060009054906101000a900460ff1615151462000d09576040517f08c379a000000000000000000000000000000000000000000000000000000000815260040162000d009062001dbe565b60405180910390fd5b813373ffffffffffffffffffffffffffffffffffffffff167f02a80919ce024c0c1e36c05d886c8636864d36bf1d662e02472c4eb648cc11f38360405162000d52919062002280565b60405180910390a35050565b6000600260009054906101000a900473ffffffffffffffffffffffffffffffffffffffff1673ffffffffffffffffffffffffffffffffffffffff1663cee2a9cf336040518263ffffffff1660e01b815260040162000dbd919062001b5b565b602060405180830381865afa15801562000ddb573d6000803e3d6000fd5b505050506040513d601f19601f8201168201806040525081019062000e019190620022bb565b905090565b600060011515600560003373ffffffffffffffffffffffffffffffffffffffff1673ffffffffffffffffffffffffffffffffffffffff16815260200190815260200160002060009054906101000a900460ff1615151462000e9e576040517f08c379a000000000000000000000000000000000000000000000000000000000815260040162000e959062001dbe565b60405180910390fd5b60066000838152602001908152602001600020600101549050919050565b6000600260009054906101000a900473ffffffffffffffffffffffffffffffffffffffff1673ffffffffffffffffffffffffffffffffffffffff166370a08231336040518263ffffffff1660e01b815260040162000f1b919062001b5b565b602060405180830381865afa15801562000f39573d6000803e3d6000fd5b505050506040513d601f19601f8201168201806040525081019062000f5f9190620022bb565b905090565b60008060009054906101000a900473ffffffffffffffffffffffffffffffffffffffff16905090565b600360009054906101000a900473ffffffffffffffffffffffffffffffffffffffff1681565b6000600460003373ffffffffffffffffffffffffffffffffffffffff1673ffffffffffffffffffffffffffffffffffffffff16815260200190815260200160002060009054906101000a900473ffffffffffffffffffffffffffffffffffffffff16905090565b60066020528060005260406000206000915090508060000160009054906101000a900473ffffffffffffffffffffffffffffffffffffffff16908060010154908060020180546200106b9062001e0f565b80601f0160208091040260200160405190810160405280929190818152602001828054620010999062001e0f565b8015620010ea5780601f10620010be57610100808354040283529160200191620010ea565b820191906000526020600020905b815481529060010190602001808311620010cc57829003601f168201915b505050505090806003018054620011019062001e0f565b80601f01602080910402602001604051908101604052809291908181526020018280546200112f9062001e0f565b8015620011805780601f10620011545761010080835404028352916020019162001180565b820191906000526020600020905b8154815290600101906020018083116200116257829003601f168201915b505050505090806004018054620011979062001e0f565b80601f0160208091040260200160405190810160405280929190818152602001828054620011c59062001e0f565b8015620012165780601f10620011ea5761010080835404028352916020019162001216565b820191906000526020600020905b815481529060010190602001808311620011f857829003601f168201915b5050505050908060050154908060060154908060070154905088565b60046020528060005260406000206000915054906101000a900473ffffffffffffffffffffffffffffffffffffffff1681565b6200126f6200131d565b600073ffffffffffffffffffffffffffffffffffffffff168173ffffffffffffffffffffffffffffffffffffffff1603620012e1576040517f08c379a0000000000000000000000000000000000000000000000000000000008152600401620012d89062002363565b60405180910390fd5b620012ec81620013a2565b50565b600260009054906101000a900473ffffffffffffffffffffffffffffffffffffffff1681565b600033905090565b6200132762001315565b73ffffffffffffffffffffffffffffffffffffffff166200134762000f64565b73ffffffffffffffffffffffffffffffffffffffff1614620013a0576040517f08c379a00000000000000000000000000000000000000000000000000000000081526004016200139790620023d5565b60405180910390fd5b565b60008060009054906101000a900473ffffffffffffffffffffffffffffffffffffffff169050816000806101000a81548173ffffffffffffffffffffffffffffffffffffffff021916908373ffffffffffffffffffffffffffffffffffffffff1602179055508173ffffffffffffffffffffffffffffffffffffffff168173ffffffffffffffffffffffffffffffffffffffff167f8be0079c531659141344cd1fd0a4f28419497f9722a3daafe3b4186f6b6457e060405160405180910390a35050565b604051806101000160405280600073ffffffffffffffffffffffffffffffffffffffff168152602001600081526020016060815260200160608152602001606081526020016000815260200160008152602001600081525090565b611adb80620023f883390190565b6000604051905090565b600080fd5b600080fd5b600073ffffffffffffffffffffffffffffffffffffffff82169050919050565b60006200151082620014e3565b9050919050565b620015228162001503565b81146200152e57600080fd5b50565b600081359050620015428162001517565b92915050565b600060208284031215620015615762001560620014d9565b5b6000620015718482850162001531565b91505092915050565b60008115159050919050565b62001591816200157a565b82525050565b6000602082019050620015ae600083018462001586565b92915050565b6000819050919050565b620015c981620015b4565b82525050565b6000602082019050620015e66000830184620015be565b92915050565b620015f781620015b4565b81146200160357600080fd5b50565b6000813590506200161781620015ec565b92915050565b600080fd5b600080fd5b6000601f19601f8301169050919050565b7f4e487b7100000000000000000000000000000000000000000000000000000000600052604160045260246000fd5b620016728262001627565b810181811067ffffffffffffffff8211171562001694576200169362001638565b5b80604052505050565b6000620016a9620014cf565b9050620016b7828262001667565b919050565b600067ffffffffffffffff821115620016da57620016d962001638565b5b620016e58262001627565b9050602081019050919050565b82818337600083830152505050565b6000620017186200171284620016bc565b6200169d565b90508281526020810184848401111562001737576200173662001622565b5b62001744848285620016f2565b509392505050565b600082601f8301126200176457620017636200161d565b5b81356200177684826020860162001701565b91505092915050565b6000819050919050565b62001794816200177f565b8114620017a057600080fd5b50565b600081359050620017b48162001789565b92915050565b60008060008060008060c08789031215620017da57620017d9620014d9565b5b6000620017ea89828a0162001606565b965050602087013567ffffffffffffffff8111156200180e576200180d620014de565b5b6200181c89828a016200174c565b955050604087013567ffffffffffffffff81111562001840576200183f620014de565b5b6200184e89828a016200174c565b945050606087013567ffffffffffffffff811115620018725762001871620014de565b5b6200188089828a016200174c565b93505060806200189389828a01620017a3565b92505060a0620018a689828a01620017a3565b9150509295509295509295565b60008060408385031215620018cd57620018cc620014d9565b5b6000620018dd8582860162001606565b9250506020620018f08582860162001606565b9150509250929050565b600060208284031215620019135762001912620014d9565b5b6000620019238482850162001606565b91505092915050565b620019378162001503565b82525050565b6200194881620015b4565b82525050565b600081519050919050565b600082825260208201905092915050565b60005b838110156200198a5780820151818401526020810190506200196d565b838111156200199a576000848401525b50505050565b6000620019ad826200194e565b620019b9818562001959565b9350620019cb8185602086016200196a565b620019d68162001627565b840191505092915050565b620019ec816200177f565b82525050565b60006101008301600083015162001a0d60008601826200192c565b50602083015162001a2260208601826200193d565b506040830151848203604086015262001a3c8282620019a0565b9150506060830151848203606086015262001a588282620019a0565b9150506080830151848203608086015262001a748282620019a0565b91505060a083015162001a8b60a08601826200193d565b5060c083015162001aa060c0860182620019e1565b5060e083015162001ab560e0860182620019e1565b508091505092915050565b6000602082019050818103600083015262001adc8184620019f2565b905092915050565b6000806040838503121562001afe5762001afd620014d9565b5b600062001b0e8582860162001606565b925050602083013567ffffffffffffffff81111562001b325762001b31620014de565b5b62001b40858286016200174c565b9150509250929050565b62001b558162001503565b82525050565b600060208201905062001b72600083018462001b4a565b92915050565b600062001b8582620014e3565b9050919050565b62001b978162001b78565b82525050565b600060208201905062001bb4600083018462001b8c565b92915050565b600082825260208201905092915050565b600062001bd8826200194e565b62001be4818562001bba565b935062001bf68185602086016200196a565b62001c018162001627565b840191505092915050565b62001c17816200177f565b82525050565b60006101008201905062001c35600083018b62001b4a565b62001c44602083018a620015be565b818103604083015262001c58818962001bcb565b9050818103606083015262001c6e818862001bcb565b9050818103608083015262001c84818762001bcb565b905062001c9560a0830186620015be565b62001ca460c083018562001c0c565b62001cb360e083018462001c0c565b9998505050505050505050565b6000819050919050565b600062001ceb62001ce562001cdf84620014e3565b62001cc0565b620014e3565b9050919050565b600062001cff8262001cca565b9050919050565b600062001d138262001cf2565b9050919050565b62001d258162001d06565b82525050565b600060208201905062001d42600083018462001d1a565b92915050565b7f43616c6c6572206973206e6f742074686520636f6c6c656374696f6e20636f6e60008201527f7472616374000000000000000000000000000000000000000000000000000000602082015250565b600062001da660258362001bba565b915062001db38262001d48565b604082019050919050565b6000602082019050818103600083015262001dd98162001d97565b9050919050565b7f4e487b7100000000000000000000000000000000000000000000000000000000600052602260045260246000fd5b6000600282049050600182168062001e2857607f821691505b60208210810362001e3e5762001e3d62001de0565b5b50919050565b60008190508160005260206000209050919050565b60006020601f8301049050919050565b600082821b905092915050565b60006008830262001ea87fffffffffffffffffffffffffffffffffffffffffffffffffffffffffffffffff8262001e69565b62001eb4868362001e69565b95508019841693508086168417925050509392505050565b600062001eed62001ee762001ee184620015b4565b62001cc0565b620015b4565b9050919050565b6000819050919050565b62001f098362001ecc565b62001f2162001f188262001ef4565b84845462001e76565b825550505050565b600090565b62001f3862001f29565b62001f4581848462001efe565b505050565b5b8181101562001f6d5762001f6160008262001f2e565b60018101905062001f4b565b5050565b601f82111562001fbc5762001f868162001e44565b62001f918462001e59565b8101602085101562001fa1578190505b62001fb962001fb08562001e59565b83018262001f4a565b50505b505050565b600082821c905092915050565b600062001fe16000198460080262001fc1565b1980831691505092915050565b600062001ffc838362001fce565b9150826002028217905092915050565b62002017826200194e565b67ffffffffffffffff81111562002033576200203262001638565b5b6200203f825462001e0f565b6200204c82828562001f71565b600060209050601f8311600181146200208457600084156200206f578287015190505b6200207b858262001fee565b865550620020eb565b601f198416620020948662001e44565b60005b82811015620020be5784890151825560018201915060208501945060208101905062002097565b86831015620020de5784890151620020da601f89168262001fce565b8355505b6001600288020188555050505b505050505050565b7f4e487b7100000000000000000000000000000000000000000000000000000000600052601160045260246000fd5b60006200212f82620015b4565b91507fffffffffffffffffffffffffffffffffffffffffffffffffffffffffffffffff8203620021645762002163620020f3565b5b600182019050919050565b7f596f7520617265206e6f742061206f776e6572206f662074686973206974656d600082015250565b6000620021a760208362001bba565b9150620021b4826200216f565b602082019050919050565b60006020820190508181036000830152620021da8162002198565b9050919050565b7f596f752061726520616c726564792068617665206120636f6e74726163740000600082015250565b600062002219601e8362001bba565b91506200222682620021e1565b602082019050919050565b600060208201905081810360008301526200224c816200220a565b9050919050565b60006040820190506200226a600083018562001b4a565b62002279602083018462001b4a565b9392505050565b600060208201905081810360008301526200229c818462001bcb565b905092915050565b600081519050620022b581620015ec565b92915050565b600060208284031215620022d457620022d3620014d9565b5b6000620022e484828501620022a4565b91505092915050565b7f4f776e61626c653a206e6577206f776e657220697320746865207a65726f206160008201527f6464726573730000000000000000000000000000000000000000000000000000602082015250565b60006200234b60268362001bba565b91506200235882620022ed565b604082019050919050565b600060208201905081810360008301526200237e816200233c565b9050919050565b7f4f776e61626c653a2063616c6c6572206973206e6f7420746865206f776e6572600082015250565b6000620023bd60208362001bba565b9150620023ca8262002385565b602082019050919050565b60006020820190508181036000830152620023f081620023ae565b905091905056fe608060405266038d7ea4c680006004553480156200001c57600080fd5b5060405162001adb38038062001adb833981810160405281019062000042919062000135565b816000806101000a81548173ffffffffffffffffffffffffffffffffffffffff021916908373ffffffffffffffffffffffffffffffffffffffff16021790555080600160006101000a81548173ffffffffffffffffffffffffffffffffffffffff021916908373ffffffffffffffffffffffffffffffffffffffff16021790555050506200017c565b600080fd5b600073ffffffffffffffffffffffffffffffffffffffff82169050919050565b6000620000fd82620000d0565b9050919050565b6200010f81620000f0565b81146200011b57600080fd5b50565b6000815190506200012f8162000104565b92915050565b600080604083850312156200014f576200014e620000cb565b5b60006200015f858286016200011e565b925050602062000172858286016200011e565b9150509250929050565b61194f806200018c6000396000f3fe608060405234801561001057600080fd5b50600436106100b45760003560e01c8063544ebb9311610071578063544ebb93146101a3578063592e0355146101d35780638da5cb5b14610203578063bfb231d214610221578063eb380d5f14610251578063fdbda0ec14610281576100b4565b8063291756a9146100b95780632cdc602c146100d75780633353cea6146100f55780634131d0e31461011357806345f2e902146101435780634779cb9014610173575b600080fd5b6100c16102b1565b6040516100ce9190610b8d565b60405180910390f35b6100df6102b7565b6040516100ec9190610bc1565b60405180910390f35b6100fd6102c4565b60405161010a9190610bc1565b60405180910390f35b61012d60048036038101906101289190610d62565b61035f565b60405161013a9190610dd9565b60405180910390f35b61015d60048036038101906101589190610e20565b610488565b60405161016a9190610bc1565b60405180910390f35b61018d60048036038101906101889190610f01565b6105fb565b60405161019a9190610dd9565b60405180910390f35b6101bd60048036038101906101b89190610f41565b610733565b6040516101ca9190611113565b60405180910390f35b6101ed60048036038101906101e89190611135565b61087f565b6040516101fa9190610dd9565b60405180910390f35b61020b61094d565b604051610218919061118d565b60405180910390f35b61023b60048036038101906102369190610f41565b610971565b6040516102489190610bc1565b60405180910390f35b61026b60048036038101906102669190610f41565b610995565b60405161027891906111f2565b60405180910390f35b61029b60048036038101906102969190610f41565b610a45565b6040516102a891906111f2565b60405180910390f35b60045481565b6000600380549050905090565b60003373ffffffffffffffffffffffffffffffffffffffff1660008054906101000a900473ffffffffffffffffffffffffffffffffffffffff1673ffffffffffffffffffffffffffffffffffffffff1614610354576040517f08c379a000000000000000000000000000000000000000000000000000000000815260040161034b90611260565b60405180910390fd5b600280549050905090565b60003373ffffffffffffffffffffffffffffffffffffffff1660008054906101000a900473ffffffffffffffffffffffffffffffffffffffff1673ffffffffffffffffffffffffffffffffffffffff16146103ef576040517f08c379a00000000000000000000000000000000000000000000000000000000081526004016103e690611260565b60405180910390fd5b600160009054906101000a900473ffffffffffffffffffffffffffffffffffffffff1673ffffffffffffffffffffffffffffffffffffffff1663709821d984846040518363ffffffff1660e01b815260040161044c929190611280565b600060405180830381600087803b15801561046657600080fd5b505af115801561047a573d6000803e3d6000fd5b505050506001905092915050565b60003373ffffffffffffffffffffffffffffffffffffffff1660008054906101000a900473ffffffffffffffffffffffffffffffffffffffff1673ffffffffffffffffffffffffffffffffffffffff1614610518576040517f08c379a000000000000000000000000000000000000000000000000000000000815260040161050f90611260565b60405180910390fd5b6000600160009054906101000a900473ffffffffffffffffffffffffffffffffffffffff1673ffffffffffffffffffffffffffffffffffffffff166345f2e9028989898989896040518763ffffffff1660e01b815260040161057f969594939291906112b0565b6020604051808303816000875af115801561059e573d6000803e3d6000fd5b505050506040513d601f19601f820116820180604052508101906105c2919061133b565b90506002819080600181540180825580915050600190039060005260206000200160009091909190915055809150509695505050505050565b60003373ffffffffffffffffffffffffffffffffffffffff1660008054906101000a900473ffffffffffffffffffffffffffffffffffffffff1673ffffffffffffffffffffffffffffffffffffffff161461068b576040517f08c379a000000000000000000000000000000000000000000000000000000000815260040161068290611260565b60405180910390fd5b600160009054906101000a900473ffffffffffffffffffffffffffffffffffffffff1673ffffffffffffffffffffffffffffffffffffffff16634779cb9084846040518363ffffffff1660e01b81526004016106e8929190611368565b6020604051808303816000875af1158015610707573d6000803e3d6000fd5b505050506040513d601f19601f8201168201806040525081019061072b91906113bd565b905092915050565b61073b610b19565b3373ffffffffffffffffffffffffffffffffffffffff1660008054906101000a900473ffffffffffffffffffffffffffffffffffffffff1673ffffffffffffffffffffffffffffffffffffffff16146107c9576040517f08c379a00000000000000000000000000000000000000000000000000000000081526004016107c090611260565b60405180910390fd5b60006107d483610af1565b9050600160009054906101000a900473ffffffffffffffffffffffffffffffffffffffff1673ffffffffffffffffffffffffffffffffffffffff1663544ebb93826040518263ffffffff1660e01b81526004016108319190610bc1565b600060405180830381865afa15801561084e573d6000803e3d6000fd5b505050506040513d6000823e3d601f19601f8201168201806040525081019061087791906115c3565b915050919050565b60003373ffffffffffffffffffffffffffffffffffffffff1660008054906101000a900473ffffffffffffffffffffffffffffffffffffffff1673ffffffffffffffffffffffffffffffffffffffff161461090f576040517f08c379a000000000000000000000000000000000000000000000000000000000815260040161090690611260565b60405180910390fd5b6003829080600181540180825580915050600190039060005260206000200160009091909190915090816109439190611818565b5060019050919050565b60008054906101000a900473ffffffffffffffffffffffffffffffffffffffff1681565b6002818154811061098157600080fd5b906000526020600020016000915090505481565b6060600382815481106109ab576109aa6118ea565b5b9060005260206000200180546109c09061163b565b80601f01602080910402602001604051908101604052809291908181526020018280546109ec9061163b565b8015610a395780601f10610a0e57610100808354040283529160200191610a39565b820191906000526020600020905b815481529060010190602001808311610a1c57829003601f168201915b50505050509050919050565b60038181548110610a5557600080fd5b906000526020600020016000915090508054610a709061163b565b80601f0160208091040260200160405190810160405280929190818152602001828054610a9c9061163b565b8015610ae95780601f10610abe57610100808354040283529160200191610ae9565b820191906000526020600020905b815481529060010190602001808311610acc57829003601f168201915b505050505081565b600060028281548110610b0757610b066118ea565b5b90600052602060002001549050919050565b604051806101000160405280600073ffffffffffffffffffffffffffffffffffffffff168152602001600081526020016060815260200160608152602001606081526020016000815260200160008152602001600081525090565b6000819050919050565b610b8781610b74565b82525050565b6000602082019050610ba26000830184610b7e565b92915050565b6000819050919050565b610bbb81610ba8565b82525050565b6000602082019050610bd66000830184610bb2565b92915050565b6000604051905090565b600080fd5b600080fd5b610bf981610ba8565b8114610c0457600080fd5b50565b600081359050610c1681610bf0565b92915050565b600080fd5b600080fd5b6000601f19601f8301169050919050565b7f4e487b7100000000000000000000000000000000000000000000000000000000600052604160045260246000fd5b610c6f82610c26565b810181811067ffffffffffffffff82111715610c8e57610c8d610c37565b5b80604052505050565b6000610ca1610bdc565b9050610cad8282610c66565b919050565b600067ffffffffffffffff821115610ccd57610ccc610c37565b5b610cd682610c26565b9050602081019050919050565b82818337600083830152505050565b6000610d05610d0084610cb2565b610c97565b905082815260208101848484011115610d2157610d20610c21565b5b610d2c848285610ce3565b509392505050565b600082601f830112610d4957610d48610c1c565b5b8135610d59848260208601610cf2565b91505092915050565b60008060408385031215610d7957610d78610be6565b5b6000610d8785828601610c07565b925050602083013567ffffffffffffffff811115610da857610da7610beb565b5b610db485828601610d34565b9150509250929050565b60008115159050919050565b610dd381610dbe565b82525050565b6000602082019050610dee6000830184610dca565b92915050565b610dfd81610b74565b8114610e0857600080fd5b50565b600081359050610e1a81610df4565b92915050565b60008060008060008060c08789031215610e3d57610e3c610be6565b5b6000610e4b89828a01610c07565b965050602087013567ffffffffffffffff811115610e6c57610e6b610beb565b5b610e7889828a01610d34565b955050604087013567ffffffffffffffff811115610e9957610e98610beb565b5b610ea589828a01610d34565b945050606087013567ffffffffffffffff811115610ec657610ec5610beb565b5b610ed289828a01610d34565b9350506080610ee389828a01610e0b565b92505060a0610ef489828a01610e0b565b9150509295509295509295565b60008060408385031215610f1857610f17610be6565b5b6000610f2685828601610c07565b9250506020610f3785828601610c07565b9150509250929050565b600060208284031215610f5757610f56610be6565b5b6000610f6584828501610c07565b91505092915050565b600073ffffffffffffffffffffffffffffffffffffffff82169050919050565b6000610f9982610f6e565b9050919050565b610fa981610f8e565b82525050565b610fb881610ba8565b82525050565b600081519050919050565b600082825260208201905092915050565b60005b83811015610ff8578082015181840152602081019050610fdd565b83811115611007576000848401525b50505050565b600061101882610fbe565b6110228185610fc9565b9350611032818560208601610fda565b61103b81610c26565b840191505092915050565b61104f81610b74565b82525050565b60006101008301600083015161106e6000860182610fa0565b5060208301516110816020860182610faf565b5060408301518482036040860152611099828261100d565b915050606083015184820360608601526110b3828261100d565b915050608083015184820360808601526110cd828261100d565b91505060a08301516110e260a0860182610faf565b5060c08301516110f560c0860182611046565b5060e083015161110860e0860182611046565b508091505092915050565b6000602082019050818103600083015261112d8184611055565b905092915050565b60006020828403121561114b5761114a610be6565b5b600082013567ffffffffffffffff81111561116957611168610beb565b5b61117584828501610d34565b91505092915050565b61118781610f8e565b82525050565b60006020820190506111a2600083018461117e565b92915050565b600082825260208201905092915050565b60006111c482610fbe565b6111ce81856111a8565b93506111de818560208601610fda565b6111e781610c26565b840191505092915050565b6000602082019050818103600083015261120c81846111b9565b905092915050565b7f43616c6c6572206973206e6f7420746865206f776e6572000000000000000000600082015250565b600061124a6017836111a8565b915061125582611214565b602082019050919050565b600060208201905081810360008301526112798161123d565b9050919050565b60006040820190506112956000830185610bb2565b81810360208301526112a781846111b9565b90509392505050565b600060c0820190506112c56000830189610bb2565b81810360208301526112d781886111b9565b905081810360408301526112eb81876111b9565b905081810360608301526112ff81866111b9565b905061130e6080830185610b7e565b61131b60a0830184610b7e565b979650505050505050565b60008151905061133581610bf0565b92915050565b60006020828403121561135157611350610be6565b5b600061135f84828501611326565b91505092915050565b600060408201905061137d6000830185610bb2565b61138a6020830184610bb2565b9392505050565b61139a81610dbe565b81146113a557600080fd5b50565b6000815190506113b781611391565b92915050565b6000602082840312156113d3576113d2610be6565b5b60006113e1848285016113a8565b91505092915050565b600080fd5b600080fd5b6113fd81610f8e565b811461140857600080fd5b50565b60008151905061141a816113f4565b92915050565b600061143361142e84610cb2565b610c97565b90508281526020810184848401111561144f5761144e610c21565b5b61145a848285610fda565b509392505050565b600082601f83011261147757611476610c1c565b5b8151611487848260208601611420565b91505092915050565b60008151905061149f81610df4565b92915050565b600061010082840312156114bc576114bb6113ea565b5b6114c7610100610c97565b905060006114d78482850161140b565b60008301525060206114eb84828501611326565b602083015250604082015167ffffffffffffffff81111561150f5761150e6113ef565b5b61151b84828501611462565b604083015250606082015167ffffffffffffffff81111561153f5761153e6113ef565b5b61154b84828501611462565b606083015250608082015167ffffffffffffffff81111561156f5761156e6113ef565b5b61157b84828501611462565b60808301525060a061158f84828501611326565b60a08301525060c06115a384828501611490565b60c08301525060e06115b784828501611490565b60e08301525092915050565b6000602082840312156115d9576115d8610be6565b5b600082015167ffffffffffffffff8111156115f7576115f6610beb565b5b611603848285016114a5565b91505092915050565b7f4e487b7100000000000000000000000000000000000000000000000000000000600052602260045260246000fd5b6000600282049050600182168061165357607f821691505b6020821081036116665761166561160c565b5b50919050565b60008190508160005260206000209050919050565b60006020601f8301049050919050565b600082821b905092915050565b6000600883026116ce7fffffffffffffffffffffffffffffffffffffffffffffffffffffffffffffffff82611691565b6116d88683611691565b95508019841693508086168417925050509392505050565b6000819050919050565b600061171561171061170b84610ba8565b6116f0565b610ba8565b9050919050565b6000819050919050565b61172f836116fa565b61174361173b8261171c565b84845461169e565b825550505050565b600090565b61175861174b565b611763818484611726565b505050565b5b818110156117875761177c600082611750565b600181019050611769565b5050565b601f8211156117cc5761179d8161166c565b6117a684611681565b810160208510156117b5578190505b6117c96117c185611681565b830182611768565b50505b505050565b600082821c905092915050565b60006117ef600019846008026117d1565b1980831691505092915050565b600061180883836117de565b9150826002028217905092915050565b61182182610fbe565b67ffffffffffffffff81111561183a57611839610c37565b5b611844825461163b565b61184f82828561178b565b600060209050601f8311600181146118825760008415611870578287015190505b61187a85826117fc565b8655506118e2565b601f1984166118908661166c565b60005b828110156118b857848901518255600182019150602085019450602081019050611893565b868310156118d557848901516118d1601f8916826117de565b8355505b6001600288020188555050505b505050505050565b7f4e487b7100000000000000000000000000000000000000000000000000000000600052603260045260246000fdfea2646970667358221220fdb8082f82d6ff4739ecaf5935805152758571ec1e3c6a3a23d169a42b7f7a7b64736f6c634300080f0033a26469706673582212207798b5d3d90e5bba7ae0ddcdbf71450cb913e18363c632c65b3790df01fa66df64736f6c634300080f0033",
  "immutableReferences": {},
  "source": "// SPDX-License-Identifier: MIT\r\n\r\n/**\r\n * Token SmartDot (SDOT) created for project https://smartdot.xyz\r\n * The token is not intended for investment.\r\n * This is a technical token that will serve as a pass to use the project's application family.\r\n * \r\n * However, if you want to help the development of the project financially, \r\n * you can receive a certain amount of tokens. \r\n * To do this, you just need to send any number of coins MATIC to the address of this smart contract. \r\n * In response, the smart contract will credit your address with the appropriate number of tokens in a 1:1 ratio.\r\n * \r\n * Together we make the world a better place.\r\n */\r\n\r\npragma solidity >=0.7.0 <0.9.0;\r\n\r\n\r\nabstract contract Context {\r\n    function _msgSender() internal view virtual returns (address) {\r\n        return msg.sender;\r\n    }\r\n\r\n    function _msgData() internal view virtual returns (bytes calldata) {\r\n        this; // silence state mutability warning without generating bytecode - see https://github.com/ethereum/solidity/issues/2691\r\n        return msg.data;\r\n    }\r\n}\r\n\r\n\r\nabstract contract Ownable is Context {\r\n    address private _owner;\r\n\r\n    event OwnershipTransferred(address indexed previousOwner, address indexed newOwner);\r\n\r\n    /**\r\n     * @dev Initializes the contract setting the deployer as the initial owner.\r\n     */\r\n    constructor() {\r\n        _transferOwnership(_msgSender());\r\n    }\r\n\r\n    /**\r\n     * @dev Throws if called by any account other than the owner.\r\n     */\r\n    modifier onlyOwner() {\r\n        _checkOwner();\r\n        _;\r\n    }\r\n\r\n    /**\r\n     * @dev Returns the address of the current owner.\r\n     */\r\n    function owner() public view virtual returns (address) {\r\n        return _owner;\r\n    }\r\n\r\n    /**\r\n     * @dev Throws if the sender is not the owner.\r\n     */\r\n    function _checkOwner() internal view virtual {\r\n        require(owner() == _msgSender(), \"Ownable: caller is not the owner\");\r\n    }\r\n\r\n\r\n    /**\r\n     * @dev Transfers ownership of the contract to a new account (`newOwner`).\r\n     * Can only be called by the current owner.\r\n     */\r\n    function transferOwnership(address newOwner) public virtual onlyOwner {\r\n        require(newOwner != address(0), \"Ownable: new owner is the zero address\");\r\n        _transferOwnership(newOwner);\r\n    }\r\n\r\n    /**\r\n     * @dev Transfers ownership of the contract to a new account (`newOwner`).\r\n     * Internal function without access restriction.\r\n     */\r\n    function _transferOwnership(address newOwner) internal virtual {\r\n        address oldOwner = _owner;\r\n        _owner = newOwner;\r\n        emit OwnershipTransferred(oldOwner, newOwner);\r\n    }\r\n}\r\n\r\n\r\ninterface IERC20 {\r\n    function totalSupply() external view returns (uint256);\r\n\r\n    function balanceOf(address account) external view returns (uint256);\r\n\r\n    function transfer(address recipient, uint256 amount) external returns (bool);\r\n\r\n    function allowance(address owner, address spender) external view returns (uint256);\r\n\r\n    function approve(address spender, uint256 amount) external returns (bool);\r\n\r\n    function transferFrom(address sender, address recipient, uint256 amount) external returns (bool);\r\n\r\n    event Transfer(address indexed from, address indexed to, uint256 value);\r\n\r\n    event Approval(address indexed owner, address indexed spender, uint256 value);\r\n}\r\n\r\n\r\ncontract ERC20 is Context, IERC20 {\r\n    mapping (address => uint256) private _balances;\r\n\r\n    mapping (address => mapping (address => uint256)) private _allowances;\r\n\r\n    uint256 private _totalSupply;\r\n\r\n    string private _name;\r\n    string private _symbol;\r\n\r\n    constructor (string memory name_, string memory symbol_) {\r\n        _name = name_;\r\n        _symbol = symbol_;\r\n    }\r\n\r\n    function name() public view virtual returns (string memory) {\r\n        return _name;\r\n    }\r\n\r\n    function symbol() public view virtual returns (string memory) {\r\n        return _symbol;\r\n    }\r\n\r\n    function decimals() public view virtual returns (uint8) {\r\n        return 18;\r\n    }\r\n\r\n    function totalSupply() public view virtual override returns (uint256) {\r\n        return _totalSupply;\r\n    }\r\n\r\n    function balanceOf(address account) public view virtual override returns (uint256) {\r\n        return _balances[account];\r\n    }\r\n\r\n    function transfer(address recipient, uint256 amount) public virtual override returns (bool) {\r\n        _transfer(_msgSender(), recipient, amount);\r\n        return true;\r\n    }\r\n\r\n    function allowance(address owner, address spender) public view virtual override returns (uint256) {\r\n        return _allowances[owner][spender];\r\n    }\r\n\r\n    function approve(address spender, uint256 amount) public virtual override returns (bool) {\r\n        _approve(_msgSender(), spender, amount);\r\n        return true;\r\n    }\r\n\r\n    function transferFrom(address sender, address recipient, uint256 amount) public virtual override returns (bool) {\r\n        _transfer(sender, recipient, amount);\r\n\r\n        uint256 currentAllowance = _allowances[sender][_msgSender()];\r\n        require(currentAllowance >= amount, \"ERC20: transfer amount exceeds allowance\");\r\n        _approve(sender, _msgSender(), currentAllowance - amount);\r\n\r\n        return true;\r\n    }\r\n\r\n    function increaseAllowance(address spender, uint256 addedValue) public virtual returns (bool) {\r\n        _approve(_msgSender(), spender, _allowances[_msgSender()][spender] + addedValue);\r\n        return true;\r\n    }\r\n\r\n    function decreaseAllowance(address spender, uint256 subtractedValue) public virtual returns (bool) {\r\n        uint256 currentAllowance = _allowances[_msgSender()][spender];\r\n        require(currentAllowance >= subtractedValue, \"ERC20: decreased allowance below zero\");\r\n        _approve(_msgSender(), spender, currentAllowance - subtractedValue);\r\n\r\n        return true;\r\n    }\r\n      function _transfer(address sender, address recipient, uint256 amount) internal virtual {\r\n        require(sender != address(0), \"ERC20: transfer from the zero address\");\r\n        require(recipient != address(0), \"ERC20: transfer to the zero address\");\r\n\r\n        _beforeTokenTransfer(sender, recipient, amount);\r\n\r\n        uint256 senderBalance = _balances[sender];\r\n        require(senderBalance >= amount, \"ERC20: transfer amount exceeds balance\");\r\n        _balances[sender] = senderBalance - amount;\r\n        _balances[recipient] += amount;\r\n\r\n        emit Transfer(sender, recipient, amount);\r\n    }\r\n\r\n    function _mint(address account, uint256 amount) internal virtual {\r\n        require(account != address(0), \"ERC20: mint to the zero address\");\r\n\r\n        _beforeTokenTransfer(address(0), account, amount);\r\n\r\n        _totalSupply += amount;\r\n        _balances[account] += amount;\r\n        emit Transfer(address(0), account, amount);\r\n    }\r\n\r\n    function _burn(address account, uint256 amount) internal virtual {\r\n        require(account != address(0), \"ERC20: burn from the zero address\");\r\n\r\n        _beforeTokenTransfer(account, address(0), amount);\r\n\r\n        uint256 accountBalance = _balances[account];\r\n        require(accountBalance >= amount, \"ERC20: burn amount exceeds balance\");\r\n        _balances[account] = accountBalance - amount;\r\n        _totalSupply -= amount;\r\n\r\n        emit Transfer(account, address(0), amount);\r\n    }\r\n\r\n    function _approve(address owner, address spender, uint256 amount) internal virtual {\r\n        require(owner != address(0), \"ERC20: approve from the zero address\");\r\n        require(spender != address(0), \"ERC20: approve to the zero address\");\r\n\r\n        _allowances[owner][spender] = amount;\r\n        emit Approval(owner, spender, amount);\r\n    }\r\n\r\n    function _beforeTokenTransfer(address from, address to, uint256 amount) internal virtual { }\r\n}\r\n\r\n\r\ncontract MyToken is ERC20, Ownable {\r\n    event Withdraw(address, uint256);\r\n    address myAddress = address(this);\r\n    mapping (address => uint) private whitelist;\r\n    uint public endDate = 1672531200; //1 January 2023\r\n    constructor() ERC20(\"SmartDot\", \"SDOT\") {\r\n\r\n    }\r\n\r\n    function addToWhiteList (address investor, uint amount) internal {\r\n        if (block.timestamp <= endDate) {\r\n            whitelist[investor] += amount;\r\n        }\r\n    }\r\n\r\n    function isInvestor(address investor) public view returns (uint) {\r\n        return whitelist[investor];\r\n    }\r\n\r\n    receive() external payable {\r\n        addToWhiteList(msg.sender, msg.value);\r\n        _mint(_msgSender(), msg.value);\r\n    }\r\n\r\n    fallback() external payable {\r\n        addToWhiteList(msg.sender, msg.value);\r\n        _mint(_msgSender(), msg.value);\r\n    }\r\n\r\n    function withdraw (uint _value) public onlyOwner {\r\n        address payable to = payable(owner());\r\n        require (myAddress.balance >= _value,\"Value is more than balance\");\r\n        to.transfer(_value);\r\n        emit Withdraw(_msgSender(), _value);\r\n\r\n    }\r\n}\r\n\r\n\r\n\r\n// Smartdot version 1.2\r\n// 21.07.2022 Alex Production\r\n\r\ninterface Items {\r\n    struct Item {\r\n        address ownerAddress;\r\n        uint collectionID;\r\n        string nameItem;\r\n        string ipfsCID;\r\n        string description;\r\n        uint blockNumber;\r\n        int latitude;\r\n        int longitude;\r\n\r\n    }\r\n}\r\n\r\n\r\ncontract Smartdot is Ownable, Items {\r\n    \r\n    event addUsers(address indexed newUser);\r\n    event addItems(int indexed latitude, int indexed longitude, address indexed owner, uint itemID);\r\n    event additionalRecord(address indexed owner, uint indexed parentID, string description);\r\n\r\n    uint public totalItems;\r\n    MyToken public token;\r\n    address payable public tokenAdress;\r\n    // first address - owner\r\n    // second address - personal collection contract for this owner\r\n    mapping(address => address) public mapCollections;\r\n    \r\n    mapping(address => bool) public mapContracts;\r\n\r\n    mapping (uint => Item) public items;\r\n\r\n    modifier onlyContract() {\r\n        require(mapContracts[msg.sender]==true, \"Caller is not the collection contract\");\r\n        _;\r\n    }\r\n/*\r\n    constructor (){\r\n        token = new MyToken();\r\n        totalItems = 0;\r\n    }\r\n*/\r\n    constructor (address payable _tokenAddress){\r\n        tokenAdress = _tokenAddress;\r\n        token = MyToken(tokenAdress);\r\n        totalItems = 0;\r\n    }\r\n\r\n    function showYourBalance() public view returns (uint) {\r\n        return token.balanceOf(msg.sender);\r\n    }\r\n\r\n    function isInvestor() public view returns (uint) {\r\n        return token.isInvestor(msg.sender);\r\n    }\r\n\r\n    function newUser() public returns (bool){\r\n        require(mapCollections[msg.sender] == address(0), \"You are alredy have a contract\");\r\n        address newContract = address(new Collections(msg.sender, address(this)));\r\n        mapContracts[newContract]=true;\r\n        mapCollections[msg.sender]=newContract;\r\n        emit addUsers(msg.sender);\r\n        return true;\r\n    }\r\n\r\n    function showContract() public view returns (address) {\r\n        return mapCollections[msg.sender];\r\n    }\r\n\r\n\r\n    function addItem(uint collectionID, string memory nameItem, string memory ipfsCID, string memory description, int latitude, int longitude) public onlyContract returns (uint resultID) {\r\n        Item memory tempData = Item({\r\n            ownerAddress: address(msg.sender),\r\n            collectionID: collectionID,\r\n            nameItem: nameItem,\r\n            ipfsCID: ipfsCID,\r\n            description: description,\r\n            blockNumber: block.number,\r\n            latitude:latitude,\r\n            longitude:longitude\r\n        });\r\n        items[totalItems]=tempData;\r\n        resultID = totalItems;\r\n        totalItems ++;\r\n        emit addItems(latitude, longitude, msg.sender, resultID);\r\n        return resultID;\r\n    }\r\n\r\n    function showItem(uint itemID) public view returns (Item memory) {\r\n        return items[itemID];\r\n    }\r\n\r\n    function changeCollection(uint itemID, uint newCollectionID) public onlyContract returns (bool) {\r\n        require(items[itemID].ownerAddress == _msgSender(),\"You are not a owner of this item\");\r\n        items[itemID].collectionID = newCollectionID;\r\n        return true;\r\n    }\r\n\r\n    function getCollectionID(uint itemID) public view onlyContract returns (uint) {\r\n        return items[itemID].collectionID;\r\n    }\r\n\r\n    function addEventRecord(uint parentID, string memory description) public onlyContract {\r\n        emit additionalRecord(msg.sender, parentID, description);\r\n    }\r\n\r\n\r\n}\r\n\r\n\r\ncontract Collections is Items {\r\n\r\n    address public owner ;\r\n\r\n    Smartdot mainContract;\r\n\r\n    uint [] public items;    // uint - ID token from main contract mapping\r\n\r\n    string [] public collections;\r\n    int public geoMultiplier = 10**15; // for storage geotags in integer type of data\r\n\r\n    modifier onlyOwner() {\r\n        require(owner == msg.sender, \"Caller is not the owner\");\r\n        _;\r\n    }\r\n\r\n    constructor(address ownerAddress, address smartdot) {\r\n        owner = ownerAddress;\r\n        mainContract = Smartdot(smartdot);\r\n    }\r\n\r\n    function addCollection(string memory nameCollection) public onlyOwner returns (bool) {\r\n        collections.push(nameCollection);\r\n        return true;\r\n    }\r\n\r\n    function changeCollection(uint itemID, uint newCollectionID) public onlyOwner returns (bool) {\r\n        return mainContract.changeCollection(itemID, newCollectionID);\r\n    }\r\n\r\n    function addItem(uint collectionID, string memory nameItem, string memory ipfsCID, string memory description, int latitude, int longitude) public onlyOwner returns(uint) {\r\n        uint resultID = mainContract.addItem(collectionID, nameItem, ipfsCID, description, latitude, longitude);\r\n        items.push(resultID);\r\n        return resultID;\r\n    }\r\n\r\n    function addRecord(uint parentID, string memory description) public onlyOwner returns(bool) {\r\n        mainContract.addEventRecord(parentID, description);\r\n        return true;\r\n    }\r\n\r\n    function showItemsAmount() public view onlyOwner returns (uint) {\r\n        return items.length;\r\n    }\r\n\r\n    function showCollectionsAmount() public view returns (uint) {\r\n        return collections.length;\r\n    }\r\n\r\n    /*\r\n        dev \r\n        param itemID - index of local array items[]\r\n        return index in mapping items in main contract\r\n    */\r\n    function showItemMainID(uint itemID) internal view returns (uint) {\r\n        return items[itemID];\r\n    }\r\n\r\n    function showItem(uint itemID) public view onlyOwner returns (Item memory) {\r\n        uint globalID = showItemMainID(itemID);\r\n        return mainContract.showItem(globalID);\r\n    }\r\n\r\n    function showCollectionName(uint collectionID) public view returns (string memory) {\r\n        return collections[collectionID];\r\n    }\r\n\r\n}\r\n\r\n\r\n",
  "sourcePath": "D:\\solidity\\SmartDotApp\\contracts\\smartdot.sol",
  "compiler": {
    "name": "solc",
    "version": "0.8.15+commit.e14f2714.Emscripten.clang"
  },
  "schemaVersion": "3.4.8",
  "updatedAt": "2022-07-30T04:56:50.405Z",
  "networkType": "ethereum",
  "devdoc": {
    "kind": "dev",
    "methods": {
      "owner()": {
        "details": "Returns the address of the current owner."
      },
      "transferOwnership(address)": {
        "details": "Transfers ownership of the contract to a new account (`newOwner`). Can only be called by the current owner."
      }
    },
    "version": 1
  },
  "userdoc": {
    "kind": "user",
    "methods": {},
    "version": 1
  }
}