{
  "contractName": "Smartdot",
  "abi": [
    {
      "inputs": [
        {
          "internalType": "address payable",
          "name": "_tokenAddress",
          "type": "address"
        }
      ],
      "stateMutability": "nonpayable",
      "type": "constructor"
    },
    {
      "anonymous": false,
      "inputs": [
        {
          "indexed": true,
          "internalType": "address",
          "name": "newUser",
          "type": "address"
        }
      ],
      "name": "AddUsers",
      "type": "event"
    },
    {
      "anonymous": false,
      "inputs": [
        {
          "indexed": true,
          "internalType": "address",
          "name": "previousOwner",
          "type": "address"
        },
        {
          "indexed": true,
          "internalType": "address",
          "name": "newOwner",
          "type": "address"
        }
      ],
      "name": "OwnershipTransferred",
      "type": "event"
    },
    {
      "inputs": [
        {
          "internalType": "uint256",
          "name": "",
          "type": "uint256"
        }
      ],
      "name": "itemsContract",
      "outputs": [
        {
          "internalType": "address",
          "name": "",
          "type": "address"
        }
      ],
      "stateMutability": "view",
      "type": "function"
    },
    {
      "inputs": [
        {
          "internalType": "address",
          "name": "",
          "type": "address"
        }
      ],
      "name": "mapCollections",
      "outputs": [
        {
          "internalType": "address",
          "name": "",
          "type": "address"
        }
      ],
      "stateMutability": "view",
      "type": "function"
    },
    {
      "inputs": [
        {
          "internalType": "address",
          "name": "",
          "type": "address"
        }
      ],
      "name": "mapContracts",
      "outputs": [
        {
          "internalType": "bool",
          "name": "",
          "type": "bool"
        }
      ],
      "stateMutability": "view",
      "type": "function"
    },
    {
      "inputs": [],
      "name": "owner",
      "outputs": [
        {
          "internalType": "address",
          "name": "",
          "type": "address"
        }
      ],
      "stateMutability": "view",
      "type": "function"
    },
    {
      "inputs": [],
      "name": "tokenAdress",
      "outputs": [
        {
          "internalType": "address payable",
          "name": "",
          "type": "address"
        }
      ],
      "stateMutability": "view",
      "type": "function"
    },
    {
      "inputs": [
        {
          "internalType": "address",
          "name": "newOwner",
          "type": "address"
        }
      ],
      "name": "transferOwnership",
      "outputs": [],
      "stateMutability": "nonpayable",
      "type": "function"
    },
    {
      "inputs": [],
      "name": "showYourBalance",
      "outputs": [
        {
          "internalType": "uint256",
          "name": "",
          "type": "uint256"
        }
      ],
      "stateMutability": "view",
      "type": "function"
    },
    {
      "inputs": [],
      "name": "isInvestor",
      "outputs": [
        {
          "internalType": "uint256",
          "name": "",
          "type": "uint256"
        }
      ],
      "stateMutability": "view",
      "type": "function"
    },
    {
      "inputs": [],
      "name": "getTotalItems",
      "outputs": [
        {
          "internalType": "uint256",
          "name": "",
          "type": "uint256"
        }
      ],
      "stateMutability": "view",
      "type": "function"
    },
    {
      "inputs": [],
      "name": "incTotalItems",
      "outputs": [],
      "stateMutability": "nonpayable",
      "type": "function"
    },
    {
      "inputs": [],
      "name": "newUser",
      "outputs": [
        {
          "internalType": "bool",
          "name": "",
          "type": "bool"
        }
      ],
      "stateMutability": "nonpayable",
      "type": "function"
    },
    {
      "inputs": [],
      "name": "showContract",
      "outputs": [
        {
          "internalType": "address",
          "name": "",
          "type": "address"
        }
      ],
      "stateMutability": "view",
      "type": "function"
    },
    {
      "inputs": [
        {
          "internalType": "uint256",
          "name": "itemID",
          "type": "uint256"
        }
      ],
      "name": "showItem",
      "outputs": [
        {
          "components": [
            {
              "internalType": "uint256",
              "name": "collectionID",
              "type": "uint256"
            },
            {
              "internalType": "string",
              "name": "nameItem",
              "type": "string"
            },
            {
              "internalType": "string",
              "name": "ipfsCID",
              "type": "string"
            },
            {
              "internalType": "string",
              "name": "ipfsFileName",
              "type": "string"
            },
            {
              "internalType": "string",
              "name": "description",
              "type": "string"
            },
            {
              "internalType": "uint256",
              "name": "blockNumber",
              "type": "uint256"
            },
            {
              "internalType": "uint256",
              "name": "createDate",
              "type": "uint256"
            },
            {
              "internalType": "int256",
              "name": "latitude",
              "type": "int256"
            },
            {
              "internalType": "int256",
              "name": "longitude",
              "type": "int256"
            },
            {
              "internalType": "bool",
              "name": "isActive",
              "type": "bool"
            }
          ],
          "internalType": "struct Items.Item",
          "name": "",
          "type": "tuple"
        }
      ],
      "stateMutability": "view",
      "type": "function"
    },
    {
      "inputs": [],
      "name": "destructContract",
      "outputs": [],
      "stateMutability": "nonpayable",
      "type": "function"
    }
  ],
  "bytecode": "0x60806040523480156200001157600080fd5b5060405162003e6f38038062003e6f833981810160405281019062000037919062000240565b620000576200004b6200010a60201b60201c565b6200011260201b60201c565b80600360006101000a81548173ffffffffffffffffffffffffffffffffffffffff021916908373ffffffffffffffffffffffffffffffffffffffff160217905550600360009054906101000a900473ffffffffffffffffffffffffffffffffffffffff16600260006101000a81548173ffffffffffffffffffffffffffffffffffffffff021916908373ffffffffffffffffffffffffffffffffffffffff16021790555060006001819055505062000272565b600033905090565b60008060009054906101000a900473ffffffffffffffffffffffffffffffffffffffff169050816000806101000a81548173ffffffffffffffffffffffffffffffffffffffff021916908373ffffffffffffffffffffffffffffffffffffffff1602179055508173ffffffffffffffffffffffffffffffffffffffff168173ffffffffffffffffffffffffffffffffffffffff167f8be0079c531659141344cd1fd0a4f28419497f9722a3daafe3b4186f6b6457e060405160405180910390a35050565b600080fd5b600073ffffffffffffffffffffffffffffffffffffffff82169050919050565b60006200020882620001db565b9050919050565b6200021a81620001fb565b81146200022657600080fd5b50565b6000815190506200023a816200020f565b92915050565b600060208284031215620002595762000258620001d6565b5b6000620002698482850162000229565b91505092915050565b613bed80620002826000396000f3fe60806040523480156200001157600080fd5b5060043610620001005760003560e01c80638c2663c8116200009957806397c9c5a6116200006f57806397c9c5a61462000269578063b25e93ff146200028b578063d13d940814620002ad578063f2fde38b14620002e35762000100565b80638c2663c814620002195780638da5cb5b146200023b5780639499e018146200025d5762000100565b806362a3e22311620000db57806362a3e22314620001935780636cebad9814620001c95780637614e75614620001eb57806389defc04146200020d5762000100565b8063086137ae1462000105578063310aac69146200013b578063544ebb93146200015d575b600080fd5b6200012360048036038101906200011d919062000c90565b62000303565b60405162000132919062000cdf565b60405180910390f35b6200014562000323565b60405162000154919062000d17565b60405180910390f35b6200017b600480360381019062000175919062000d65565b6200032d565b6040516200018a919062000f7b565b60405180910390f35b620001b16004803603810190620001ab919062000d65565b620003fb565b604051620001c0919062000fb0565b60405180910390f35b620001d36200042e565b604051620001e2919062000cdf565b60405180910390f35b620001f562000660565b60405162000204919062000d17565b60405180910390f35b6200021762000708565b005b6200022362000817565b60405162000232919062000d17565b60405180910390f35b62000245620008bf565b60405162000254919062000fb0565b60405180910390f35b62000267620008e8565b005b6200027362000919565b60405162000282919062000ff2565b60405180910390f35b620002956200093f565b604051620002a4919062000fb0565b60405180910390f35b620002cb6004803603810190620002c5919062000c90565b620009a6565b604051620002da919062000fb0565b60405180910390f35b620003016004803603810190620002fb919062000c90565b620009d9565b005b60056020528060005260406000206000915054906101000a900460ff1681565b6000600154905090565b6200033762000bb4565b60006006600084815260200190815260200160002060009054906101000a900473ffffffffffffffffffffffffffffffffffffffff1690508073ffffffffffffffffffffffffffffffffffffffff1663544ebb93846040518263ffffffff1660e01b8152600401620003aa919062000d17565b600060405180830381865afa158015620003c8573d6000803e3d6000fd5b505050506040513d6000823e3d601f19601f82011682018060405250810190620003f391906200135f565b915050919050565b60066020528060005260406000206000915054906101000a900473ffffffffffffffffffffffffffffffffffffffff1681565b60008073ffffffffffffffffffffffffffffffffffffffff16600460003373ffffffffffffffffffffffffffffffffffffffff1673ffffffffffffffffffffffffffffffffffffffff16815260200190815260200160002060009054906101000a900473ffffffffffffffffffffffffffffffffffffffff1673ffffffffffffffffffffffffffffffffffffffff161462000500576040517f08c379a0000000000000000000000000000000000000000000000000000000008152600401620004f79062001411565b60405180910390fd5b60003330604051620005129062000c09565b6200051f92919062001433565b604051809103906000f0801580156200053c573d6000803e3d6000fd5b5090506001600560008373ffffffffffffffffffffffffffffffffffffffff1673ffffffffffffffffffffffffffffffffffffffff16815260200190815260200160002060006101000a81548160ff02191690831515021790555080600460003373ffffffffffffffffffffffffffffffffffffffff1673ffffffffffffffffffffffffffffffffffffffff16815260200190815260200160002060006101000a81548173ffffffffffffffffffffffffffffffffffffffff021916908373ffffffffffffffffffffffffffffffffffffffff1602179055503373ffffffffffffffffffffffffffffffffffffffff167f78ae17299bfb50a6ed625ebc5ae408ea023ec2e419727e3a0104f9b05b812b8060405160405180910390a2600191505090565b6000600260009054906101000a900473ffffffffffffffffffffffffffffffffffffffff1673ffffffffffffffffffffffffffffffffffffffff1663cee2a9cf336040518263ffffffff1660e01b8152600401620006bf919062000fb0565b602060405180830381865afa158015620006dd573d6000803e3d6000fd5b505050506040513d601f19601f8201168201806040525081019062000703919062001460565b905090565b60011515600560003373ffffffffffffffffffffffffffffffffffffffff1673ffffffffffffffffffffffffffffffffffffffff16815260200190815260200160002060009054906101000a900460ff161515146200079e576040517f08c379a0000000000000000000000000000000000000000000000000000000008152600401620007959062001508565b60405180910390fd5b620007a862000a63565b60066000600154815260200190815260200160002060006101000a81548173ffffffffffffffffffffffffffffffffffffffff021916908373ffffffffffffffffffffffffffffffffffffffff16021790555060016000815480929190620008109062001559565b9190505550565b6000600260009054906101000a900473ffffffffffffffffffffffffffffffffffffffff1673ffffffffffffffffffffffffffffffffffffffff166370a08231336040518263ffffffff1660e01b815260040162000876919062000fb0565b602060405180830381865afa15801562000894573d6000803e3d6000fd5b505050506040513d601f19601f82011682018060405250810190620008ba919062001460565b905090565b60008060009054906101000a900473ffffffffffffffffffffffffffffffffffffffff16905090565b620008f262000a6b565b6000620008fe620008bf565b90508073ffffffffffffffffffffffffffffffffffffffff16ff5b600360009054906101000a900473ffffffffffffffffffffffffffffffffffffffff1681565b6000600460003373ffffffffffffffffffffffffffffffffffffffff1673ffffffffffffffffffffffffffffffffffffffff16815260200190815260200160002060009054906101000a900473ffffffffffffffffffffffffffffffffffffffff16905090565b60046020528060005260406000206000915054906101000a900473ffffffffffffffffffffffffffffffffffffffff1681565b620009e362000a6b565b600073ffffffffffffffffffffffffffffffffffffffff168173ffffffffffffffffffffffffffffffffffffffff160362000a55576040517f08c379a000000000000000000000000000000000000000000000000000000000815260040162000a4c906200161c565b60405180910390fd5b62000a608162000af0565b50565b600033905090565b62000a7562000a63565b73ffffffffffffffffffffffffffffffffffffffff1662000a95620008bf565b73ffffffffffffffffffffffffffffffffffffffff161462000aee576040517f08c379a000000000000000000000000000000000000000000000000000000000815260040162000ae5906200168e565b60405180910390fd5b565b60008060009054906101000a900473ffffffffffffffffffffffffffffffffffffffff169050816000806101000a81548173ffffffffffffffffffffffffffffffffffffffff021916908373ffffffffffffffffffffffffffffffffffffffff1602179055508173ffffffffffffffffffffffffffffffffffffffff168173ffffffffffffffffffffffffffffffffffffffff167f8be0079c531659141344cd1fd0a4f28419497f9722a3daafe3b4186f6b6457e060405160405180910390a35050565b6040518061014001604052806000815260200160608152602001606081526020016060815260200160608152602001600081526020016000815260200160008152602001600081526020016000151581525090565b61250780620016b183390190565b6000604051905090565b600080fd5b600080fd5b600073ffffffffffffffffffffffffffffffffffffffff82169050919050565b600062000c588262000c2b565b9050919050565b62000c6a8162000c4b565b811462000c7657600080fd5b50565b60008135905062000c8a8162000c5f565b92915050565b60006020828403121562000ca95762000ca862000c21565b5b600062000cb98482850162000c79565b91505092915050565b60008115159050919050565b62000cd98162000cc2565b82525050565b600060208201905062000cf6600083018462000cce565b92915050565b6000819050919050565b62000d118162000cfc565b82525050565b600060208201905062000d2e600083018462000d06565b92915050565b62000d3f8162000cfc565b811462000d4b57600080fd5b50565b60008135905062000d5f8162000d34565b92915050565b60006020828403121562000d7e5762000d7d62000c21565b5b600062000d8e8482850162000d4e565b91505092915050565b62000da28162000cfc565b82525050565b600081519050919050565b600082825260208201905092915050565b60005b8381101562000de457808201518184015260208101905062000dc7565b8381111562000df4576000848401525b50505050565b6000601f19601f8301169050919050565b600062000e188262000da8565b62000e24818562000db3565b935062000e3681856020860162000dc4565b62000e418162000dfa565b840191505092915050565b6000819050919050565b62000e618162000e4c565b82525050565b62000e728162000cc2565b82525050565b60006101408301600083015162000e93600086018262000d97565b506020830151848203602086015262000ead828262000e0b565b9150506040830151848203604086015262000ec9828262000e0b565b9150506060830151848203606086015262000ee5828262000e0b565b9150506080830151848203608086015262000f01828262000e0b565b91505060a083015162000f1860a086018262000d97565b5060c083015162000f2d60c086018262000d97565b5060e083015162000f4260e086018262000e56565b5061010083015162000f5961010086018262000e56565b5061012083015162000f7061012086018262000e67565b508091505092915050565b6000602082019050818103600083015262000f97818462000e78565b905092915050565b62000faa8162000c4b565b82525050565b600060208201905062000fc7600083018462000f9f565b92915050565b600062000fda8262000c2b565b9050919050565b62000fec8162000fcd565b82525050565b600060208201905062001009600083018462000fe1565b92915050565b600080fd5b7f4e487b7100000000000000000000000000000000000000000000000000000000600052604160045260246000fd5b6200104e8262000dfa565b810181811067ffffffffffffffff8211171562001070576200106f62001014565b5b80604052505050565b60006200108562000c17565b905062001093828262001043565b919050565b600080fd5b600081519050620010ae8162000d34565b92915050565b600080fd5b600080fd5b600067ffffffffffffffff821115620010dc57620010db62001014565b5b620010e78262000dfa565b9050602081019050919050565b60006200110b6200110584620010be565b62001079565b9050828152602081018484840111156200112a5762001129620010b9565b5b6200113784828562000dc4565b509392505050565b600082601f830112620011575762001156620010b4565b5b815162001169848260208601620010f4565b91505092915050565b6200117d8162000e4c565b81146200118957600080fd5b50565b6000815190506200119d8162001172565b92915050565b620011ae8162000cc2565b8114620011ba57600080fd5b50565b600081519050620011ce81620011a3565b92915050565b60006101408284031215620011ee57620011ed6200100f565b5b620011fb61014062001079565b905060006200120d848285016200109d565b600083015250602082015167ffffffffffffffff81111562001234576200123362001098565b5b62001242848285016200113f565b602083015250604082015167ffffffffffffffff81111562001269576200126862001098565b5b62001277848285016200113f565b604083015250606082015167ffffffffffffffff8111156200129e576200129d62001098565b5b620012ac848285016200113f565b606083015250608082015167ffffffffffffffff811115620012d357620012d262001098565b5b620012e1848285016200113f565b60808301525060a0620012f7848285016200109d565b60a08301525060c06200130d848285016200109d565b60c08301525060e062001323848285016200118c565b60e0830152506101006200133a848285016200118c565b610100830152506101206200135284828501620011bd565b6101208301525092915050565b60006020828403121562001378576200137762000c21565b5b600082015167ffffffffffffffff81111562001399576200139862000c26565b5b620013a784828501620011d4565b91505092915050565b600082825260208201905092915050565b7f596f752061726520616c726564792068617665206120636f6e74726163740000600082015250565b6000620013f9601e83620013b0565b91506200140682620013c1565b602082019050919050565b600060208201905081810360008301526200142c81620013ea565b9050919050565b60006040820190506200144a600083018562000f9f565b62001459602083018462000f9f565b9392505050565b60006020828403121562001479576200147862000c21565b5b600062001489848285016200109d565b91505092915050565b7f43616c6c6572206973206e6f742074686520636f6c6c656374696f6e20636f6e60008201527f7472616374000000000000000000000000000000000000000000000000000000602082015250565b6000620014f0602583620013b0565b9150620014fd8262001492565b604082019050919050565b600060208201905081810360008301526200152381620014e1565b9050919050565b7f4e487b7100000000000000000000000000000000000000000000000000000000600052601160045260246000fd5b6000620015668262000cfc565b91507fffffffffffffffffffffffffffffffffffffffffffffffffffffffffffffffff82036200159b576200159a6200152a565b5b600182019050919050565b7f4f776e61626c653a206e6577206f776e657220697320746865207a65726f206160008201527f6464726573730000000000000000000000000000000000000000000000000000602082015250565b600062001604602683620013b0565b91506200161182620015a6565b604082019050919050565b600060208201905081810360008301526200163781620015f5565b9050919050565b7f4f776e61626c653a2063616c6c6572206973206e6f7420746865206f776e6572600082015250565b600062001676602083620013b0565b915062001683826200163e565b602082019050919050565b60006020820190508181036000830152620016a98162001667565b905091905056fe608060405266038d7ea4c680006006553480156200001c57600080fd5b506040516200250738038062002507833981810160405281019062000042919062000136565b81600160006101000a81548173ffffffffffffffffffffffffffffffffffffffff021916908373ffffffffffffffffffffffffffffffffffffffff16021790555080600260006101000a81548173ffffffffffffffffffffffffffffffffffffffff021916908373ffffffffffffffffffffffffffffffffffffffff16021790555050506200017d565b600080fd5b600073ffffffffffffffffffffffffffffffffffffffff82169050919050565b6000620000fe82620000d1565b9050919050565b6200011081620000f1565b81146200011c57600080fd5b50565b600081519050620001308162000105565b92915050565b6000806040838503121562000150576200014f620000cc565b5b600062000160858286016200011f565b925050602062000173858286016200011f565b9150509250929050565b61237a806200018d6000396000f3fe608060405234801561001057600080fd5b506004361061010b5760003560e01c8063592e0355116100a2578063b92ddedc11610071578063b92ddedc146102e2578063bfb231d214610300578063eb380d5f14610330578063f18838bf14610360578063fdbda0ec146103995761010b565b8063592e0355146102485780638825e111146102785780638da5cb5b146102a8578063ac0bd9fd146102c65761010b565b806337c66e24116100de57806337c66e24146101885780634131d0e3146101b85780634779cb90146101e8578063544ebb93146102185761010b565b806314d1426a14610110578063291756a91461012e5780632cdc602c1461014c5780633353cea61461016a575b600080fd5b6101186103c9565b6040516101259190611534565b60405180910390f35b6101366103d6565b6040516101439190611568565b60405180910390f35b6101546103dc565b6040516101619190611534565b60405180910390f35b6101726103e9565b60405161017f9190611534565b60405180910390f35b6101a2600480360381019061019d91906115c3565b6103f6565b6040516101af91906116ae565b60405180910390f35b6101d260048036038101906101cd9190611816565b6104f9565b6040516101df919061188d565b60405180910390f35b61020260048036038101906101fd91906118a8565b610681565b60405161020f919061188d565b60405180910390f35b610232600480360381019061022d91906115c3565b61078f565b60405161023f9190611a7d565b60405180910390f35b610262600480360381019061025d9190611a9f565b610a51565b60405161026f919061188d565b60405180910390f35b610292600480360381019061028d9190611b14565b610b79565b60405161029f919061188d565b60405180910390f35b6102b0610f13565b6040516102bd9190611c67565b60405180910390f35b6102e060048036038101906102db9190611cae565b610f39565b005b6102ea611052565b6040516102f79190611dcc565b60405180910390f35b61031a600480360381019061031591906115c3565b6110c5565b6040516103279190611534565b60405180910390f35b61034a600480360381019061034591906115c3565b6110e9565b6040516103579190611e38565b60405180910390f35b61037a600480360381019061037591906115c3565b611199565b6040516103909a99989796959493929190611e5a565b60405180910390f35b6103b360048036038101906103ae91906115c3565b61141a565b6040516103c09190611e38565b60405180910390f35b6000600380549050905090565b60065481565b6000600580549050905090565b6000600480549050905090565b6060600060038054905067ffffffffffffffff811115610419576104186116eb565b5b6040519080825280602002602001820160405280156104475781602001602082028036833780820191505090505b5090506000805b6003805490508110156104ee5784600382815481106104705761046f611f12565b5b906000526020600020906002020160000154036104db576003818154811061049b5761049a611f12565b5b9060005260206000209060020201600101548383815181106104c0576104bf611f12565b5b60200260200101818152505081806104d790611f70565b9250505b80806104e690611f70565b91505061044e565b508192505050919050565b60003373ffffffffffffffffffffffffffffffffffffffff16600160009054906101000a900473ffffffffffffffffffffffffffffffffffffffff1673ffffffffffffffffffffffffffffffffffffffff1614806105a457503373ffffffffffffffffffffffffffffffffffffffff16600260009054906101000a900473ffffffffffffffffffffffffffffffffffffffff1673ffffffffffffffffffffffffffffffffffffffff16145b6105e3576040517f08c379a00000000000000000000000000000000000000000000000000000000081526004016105da90612004565b60405180910390fd5b60006040518060400160405280858152602001438152509050837fb79f8472b4897de231e4f45b24ad5a7ea051951d0f8117045f2ea1a226df1f778460405161062c9190611e38565b60405180910390a2600381908060018154018082558091505060019003906000526020600020906002020160009091909190915060008201518160000155602082015181600101555050600191505092915050565b60003373ffffffffffffffffffffffffffffffffffffffff16600160009054906101000a900473ffffffffffffffffffffffffffffffffffffffff1673ffffffffffffffffffffffffffffffffffffffff16148061072c57503373ffffffffffffffffffffffffffffffffffffffff16600260009054906101000a900473ffffffffffffffffffffffffffffffffffffffff1673ffffffffffffffffffffffffffffffffffffffff16145b61076b576040517f08c379a000000000000000000000000000000000000000000000000000000000815260040161076290612004565b60405180910390fd5b81600080858152602001908152602001600020600001819055506001905092915050565b6107976114c6565b60008083815260200190815260200160002060405180610140016040529081600082015481526020016001820180546107cf90612053565b80601f01602080910402602001604051908101604052809291908181526020018280546107fb90612053565b80156108485780601f1061081d57610100808354040283529160200191610848565b820191906000526020600020905b81548152906001019060200180831161082b57829003601f168201915b5050505050815260200160028201805461086190612053565b80601f016020809104026020016040519081016040528092919081815260200182805461088d90612053565b80156108da5780601f106108af576101008083540402835291602001916108da565b820191906000526020600020905b8154815290600101906020018083116108bd57829003601f168201915b505050505081526020016003820180546108f390612053565b80601f016020809104026020016040519081016040528092919081815260200182805461091f90612053565b801561096c5780601f106109415761010080835404028352916020019161096c565b820191906000526020600020905b81548152906001019060200180831161094f57829003601f168201915b5050505050815260200160048201805461098590612053565b80601f01602080910402602001604051908101604052809291908181526020018280546109b190612053565b80156109fe5780601f106109d3576101008083540402835291602001916109fe565b820191906000526020600020905b8154815290600101906020018083116109e157829003601f168201915b50505050508152602001600582015481526020016006820154815260200160078201548152602001600882015481526020016009820160009054906101000a900460ff1615151515815250509050919050565b60003373ffffffffffffffffffffffffffffffffffffffff16600160009054906101000a900473ffffffffffffffffffffffffffffffffffffffff1673ffffffffffffffffffffffffffffffffffffffff161480610afc57503373ffffffffffffffffffffffffffffffffffffffff16600260009054906101000a900473ffffffffffffffffffffffffffffffffffffffff1673ffffffffffffffffffffffffffffffffffffffff16145b610b3b576040517f08c379a0000000000000000000000000000000000000000000000000000000008152600401610b3290612004565b60405180910390fd5b600582908060018154018082558091505060019003906000526020600020016000909190919091509081610b6f9190612230565b5060019050919050565b60003373ffffffffffffffffffffffffffffffffffffffff16600160009054906101000a900473ffffffffffffffffffffffffffffffffffffffff1673ffffffffffffffffffffffffffffffffffffffff161480610c2457503373ffffffffffffffffffffffffffffffffffffffff16600260009054906101000a900473ffffffffffffffffffffffffffffffffffffffff1673ffffffffffffffffffffffffffffffffffffffff16145b610c63576040517f08c379a0000000000000000000000000000000000000000000000000000000008152600401610c5a90612004565b60405180910390fd5b60006040518061014001604052808a81526020018981526020018881526020018781526020018681526020014381526020014281526020018581526020018481526020016001151581525090506000600260009054906101000a900473ffffffffffffffffffffffffffffffffffffffff1673ffffffffffffffffffffffffffffffffffffffff1663310aac696040518163ffffffff1660e01b8152600401602060405180830381865afa158015610d1f573d6000803e3d6000fd5b505050506040513d601f19601f82011682018060405250810190610d439190612317565b905081600080838152602001908152602001600020600082015181600001556020820151816001019081610d779190612230565b506040820151816002019081610d8d9190612230565b506060820151816003019081610da39190612230565b506080820151816004019081610db99190612230565b5060a0820151816005015560c0820151816006015560e0820151816007015561010082015181600801556101208201518160090160006101000a81548160ff021916908315150217905550905050600260009054906101000a900473ffffffffffffffffffffffffffffffffffffffff1673ffffffffffffffffffffffffffffffffffffffff166389defc046040518163ffffffff1660e01b8152600401600060405180830381600087803b158015610e7157600080fd5b505af1158015610e85573d6000803e3d6000fd5b5050505060048190806001815401808255809150506001900390600052602060002001600090919091909150553373ffffffffffffffffffffffffffffffffffffffff1684867f93d1229fe729c8a2874f7f1efc9688f74df75c62827f90366faf5eefb7c3e5c984604051610efa9190611534565b60405180910390a4600192505050979650505050505050565b600160009054906101000a900473ffffffffffffffffffffffffffffffffffffffff1681565b3373ffffffffffffffffffffffffffffffffffffffff16600160009054906101000a900473ffffffffffffffffffffffffffffffffffffffff1673ffffffffffffffffffffffffffffffffffffffff161480610fe257503373ffffffffffffffffffffffffffffffffffffffff16600260009054906101000a900473ffffffffffffffffffffffffffffffffffffffff1673ffffffffffffffffffffffffffffffffffffffff16145b611021576040517f08c379a000000000000000000000000000000000000000000000000000000000815260040161101890612004565b60405180910390fd5b8060008084815260200190815260200160002060090160006101000a81548160ff0219169083151502179055505050565b60606003805480602002602001604051908101604052809291908181526020016000905b828210156110bc57838290600052602060002090600202016040518060400160405290816000820154815260200160018201548152505081526020019060010190611076565b50505050905090565b600481815481106110d557600080fd5b906000526020600020016000915090505481565b6060600582815481106110ff576110fe611f12565b5b90600052602060002001805461111490612053565b80601f016020809104026020016040519081016040528092919081815260200182805461114090612053565b801561118d5780601f106111625761010080835404028352916020019161118d565b820191906000526020600020905b81548152906001019060200180831161117057829003601f168201915b50505050509050919050565b60006020528060005260406000206000915090508060000154908060010180546111c290612053565b80601f01602080910402602001604051908101604052809291908181526020018280546111ee90612053565b801561123b5780601f106112105761010080835404028352916020019161123b565b820191906000526020600020905b81548152906001019060200180831161121e57829003601f168201915b50505050509080600201805461125090612053565b80601f016020809104026020016040519081016040528092919081815260200182805461127c90612053565b80156112c95780601f1061129e576101008083540402835291602001916112c9565b820191906000526020600020905b8154815290600101906020018083116112ac57829003601f168201915b5050505050908060030180546112de90612053565b80601f016020809104026020016040519081016040528092919081815260200182805461130a90612053565b80156113575780601f1061132c57610100808354040283529160200191611357565b820191906000526020600020905b81548152906001019060200180831161133a57829003601f168201915b50505050509080600401805461136c90612053565b80601f016020809104026020016040519081016040528092919081815260200182805461139890612053565b80156113e55780601f106113ba576101008083540402835291602001916113e5565b820191906000526020600020905b8154815290600101906020018083116113c857829003601f168201915b5050505050908060050154908060060154908060070154908060080154908060090160009054906101000a900460ff1690508a565b6005818154811061142a57600080fd5b90600052602060002001600091509050805461144590612053565b80601f016020809104026020016040519081016040528092919081815260200182805461147190612053565b80156114be5780601f10611493576101008083540402835291602001916114be565b820191906000526020600020905b8154815290600101906020018083116114a157829003601f168201915b505050505081565b6040518061014001604052806000815260200160608152602001606081526020016060815260200160608152602001600081526020016000815260200160008152602001600081526020016000151581525090565b6000819050919050565b61152e8161151b565b82525050565b60006020820190506115496000830184611525565b92915050565b6000819050919050565b6115628161154f565b82525050565b600060208201905061157d6000830184611559565b92915050565b6000604051905090565b600080fd5b600080fd5b6115a08161151b565b81146115ab57600080fd5b50565b6000813590506115bd81611597565b92915050565b6000602082840312156115d9576115d861158d565b5b60006115e7848285016115ae565b91505092915050565b600081519050919050565b600082825260208201905092915050565b6000819050602082019050919050565b6116258161151b565b82525050565b6000611637838361161c565b60208301905092915050565b6000602082019050919050565b600061165b826115f0565b61166581856115fb565b93506116708361160c565b8060005b838110156116a1578151611688888261162b565b975061169383611643565b925050600181019050611674565b5085935050505092915050565b600060208201905081810360008301526116c88184611650565b905092915050565b600080fd5b600080fd5b6000601f19601f8301169050919050565b7f4e487b7100000000000000000000000000000000000000000000000000000000600052604160045260246000fd5b611723826116da565b810181811067ffffffffffffffff82111715611742576117416116eb565b5b80604052505050565b6000611755611583565b9050611761828261171a565b919050565b600067ffffffffffffffff821115611781576117806116eb565b5b61178a826116da565b9050602081019050919050565b82818337600083830152505050565b60006117b96117b484611766565b61174b565b9050828152602081018484840111156117d5576117d46116d5565b5b6117e0848285611797565b509392505050565b600082601f8301126117fd576117fc6116d0565b5b813561180d8482602086016117a6565b91505092915050565b6000806040838503121561182d5761182c61158d565b5b600061183b858286016115ae565b925050602083013567ffffffffffffffff81111561185c5761185b611592565b5b611868858286016117e8565b9150509250929050565b60008115159050919050565b61188781611872565b82525050565b60006020820190506118a2600083018461187e565b92915050565b600080604083850312156118bf576118be61158d565b5b60006118cd858286016115ae565b92505060206118de858286016115ae565b9150509250929050565b600081519050919050565b600082825260208201905092915050565b60005b83811015611922578082015181840152602081019050611907565b83811115611931576000848401525b50505050565b6000611942826118e8565b61194c81856118f3565b935061195c818560208601611904565b611965816116da565b840191505092915050565b6119798161154f565b82525050565b61198881611872565b82525050565b6000610140830160008301516119a7600086018261161c565b50602083015184820360208601526119bf8282611937565b915050604083015184820360408601526119d98282611937565b915050606083015184820360608601526119f38282611937565b91505060808301518482036080860152611a0d8282611937565b91505060a0830151611a2260a086018261161c565b5060c0830151611a3560c086018261161c565b5060e0830151611a4860e0860182611970565b50610100830151611a5d610100860182611970565b50610120830151611a7261012086018261197f565b508091505092915050565b60006020820190508181036000830152611a97818461198e565b905092915050565b600060208284031215611ab557611ab461158d565b5b600082013567ffffffffffffffff811115611ad357611ad2611592565b5b611adf848285016117e8565b91505092915050565b611af18161154f565b8114611afc57600080fd5b50565b600081359050611b0e81611ae8565b92915050565b600080600080600080600060e0888a031215611b3357611b3261158d565b5b6000611b418a828b016115ae565b975050602088013567ffffffffffffffff811115611b6257611b61611592565b5b611b6e8a828b016117e8565b965050604088013567ffffffffffffffff811115611b8f57611b8e611592565b5b611b9b8a828b016117e8565b955050606088013567ffffffffffffffff811115611bbc57611bbb611592565b5b611bc88a828b016117e8565b945050608088013567ffffffffffffffff811115611be957611be8611592565b5b611bf58a828b016117e8565b93505060a0611c068a828b01611aff565b92505060c0611c178a828b01611aff565b91505092959891949750929550565b600073ffffffffffffffffffffffffffffffffffffffff82169050919050565b6000611c5182611c26565b9050919050565b611c6181611c46565b82525050565b6000602082019050611c7c6000830184611c58565b92915050565b611c8b81611872565b8114611c9657600080fd5b50565b600081359050611ca881611c82565b92915050565b60008060408385031215611cc557611cc461158d565b5b6000611cd3858286016115ae565b9250506020611ce485828601611c99565b9150509250929050565b600081519050919050565b600082825260208201905092915050565b6000819050602082019050919050565b604082016000820151611d30600085018261161c565b506020820151611d43602085018261161c565b50505050565b6000611d558383611d1a565b60408301905092915050565b6000602082019050919050565b6000611d7982611cee565b611d838185611cf9565b9350611d8e83611d0a565b8060005b83811015611dbf578151611da68882611d49565b9750611db183611d61565b925050600181019050611d92565b5085935050505092915050565b60006020820190508181036000830152611de68184611d6e565b905092915050565b600082825260208201905092915050565b6000611e0a826118e8565b611e148185611dee565b9350611e24818560208601611904565b611e2d816116da565b840191505092915050565b60006020820190508181036000830152611e528184611dff565b905092915050565b600061014082019050611e70600083018d611525565b8181036020830152611e82818c611dff565b90508181036040830152611e96818b611dff565b90508181036060830152611eaa818a611dff565b90508181036080830152611ebe8189611dff565b9050611ecd60a0830188611525565b611eda60c0830187611525565b611ee760e0830186611559565b611ef5610100830185611559565b611f0361012083018461187e565b9b9a5050505050505050505050565b7f4e487b7100000000000000000000000000000000000000000000000000000000600052603260045260246000fd5b7f4e487b7100000000000000000000000000000000000000000000000000000000600052601160045260246000fd5b6000611f7b8261151b565b91507fffffffffffffffffffffffffffffffffffffffffffffffffffffffffffffffff8203611fad57611fac611f41565b5b600182019050919050565b7f43616c6c6572206973206e6f7420746865206f776e6572000000000000000000600082015250565b6000611fee601783611dee565b9150611ff982611fb8565b602082019050919050565b6000602082019050818103600083015261201d81611fe1565b9050919050565b7f4e487b7100000000000000000000000000000000000000000000000000000000600052602260045260246000fd5b6000600282049050600182168061206b57607f821691505b60208210810361207e5761207d612024565b5b50919050565b60008190508160005260206000209050919050565b60006020601f8301049050919050565b600082821b905092915050565b6000600883026120e67fffffffffffffffffffffffffffffffffffffffffffffffffffffffffffffffff826120a9565b6120f086836120a9565b95508019841693508086168417925050509392505050565b6000819050919050565b600061212d6121286121238461151b565b612108565b61151b565b9050919050565b6000819050919050565b61214783612112565b61215b61215382612134565b8484546120b6565b825550505050565b600090565b612170612163565b61217b81848461213e565b505050565b5b8181101561219f57612194600082612168565b600181019050612181565b5050565b601f8211156121e4576121b581612084565b6121be84612099565b810160208510156121cd578190505b6121e16121d985612099565b830182612180565b50505b505050565b600082821c905092915050565b6000612207600019846008026121e9565b1980831691505092915050565b600061222083836121f6565b9150826002028217905092915050565b612239826118e8565b67ffffffffffffffff811115612252576122516116eb565b5b61225c8254612053565b6122678282856121a3565b600060209050601f83116001811461229a5760008415612288578287015190505b6122928582612214565b8655506122fa565b601f1984166122a886612084565b60005b828110156122d0578489015182556001820191506020850194506020810190506122ab565b868310156122ed57848901516122e9601f8916826121f6565b8355505b6001600288020188555050505b505050505050565b60008151905061231181611597565b92915050565b60006020828403121561232d5761232c61158d565b5b600061233b84828501612302565b9150509291505056fea2646970667358221220d0f5443798c5ffc5d24506b22968aae4ac30c64c8186b04e689752e1fa18528764736f6c634300080f0033a26469706673582212200970f91fb51b2f8bce6731fc2d62e5ceddcd9c05972a2313a5cae28821e8b67664736f6c634300080f0033",
  "immutableReferences": {},
  "source": "// SPDX-License-Identifier: MIT\r\n\r\n/**\r\n * Token SmartDot (SDOT) created for project https://smartdot.xyz\r\n * The token is not intended for investment.\r\n * This is a technical token that will serve as a pass to use the project's application family.\r\n * \r\n * However, if you want to help the development of the project financially, \r\n * you can receive a certain amount of tokens. \r\n * To do this, you just need to send any number of coins MATIC to the address of this smart contract. \r\n * In response, the smart contract will credit your address with the appropriate number of tokens in a 1:1 ratio.\r\n * \r\n * Together we make the world a better place.\r\n */\r\n\r\n// Smartdot version 0.9.5\r\n// 20.08.2022 Alex Production\r\n\r\npragma solidity >=0.7.0 <0.9.0;\r\n\r\n\r\nabstract contract Context {\r\n    function _msgSender() internal view virtual returns (address) {\r\n        return msg.sender;\r\n    }\r\n\r\n    function _msgData() internal view virtual returns (bytes calldata) {\r\n        this; // silence state mutability warning without generating bytecode - see https://github.com/ethereum/solidity/issues/2691\r\n        return msg.data;\r\n    }\r\n}\r\n\r\n\r\nabstract contract Ownable is Context {\r\n    address private _owner;\r\n\r\n    event OwnershipTransferred(address indexed previousOwner, address indexed newOwner);\r\n\r\n    /**\r\n     * @dev Initializes the contract setting the deployer as the initial owner.\r\n     */\r\n    constructor() {\r\n        _transferOwnership(_msgSender());\r\n    }\r\n\r\n    /**\r\n     * @dev Throws if called by any account other than the owner.\r\n     */\r\n    modifier onlyOwner() {\r\n        _checkOwner();\r\n        _;\r\n    }\r\n\r\n    /**\r\n     * @dev Returns the address of the current owner.\r\n     */\r\n    function owner() public view virtual returns (address) {\r\n        return _owner;\r\n    }\r\n\r\n    /**\r\n     * @dev Throws if the sender is not the owner.\r\n     */\r\n    function _checkOwner() internal view virtual {\r\n        require(owner() == _msgSender(), \"Ownable: caller is not the owner\");\r\n    }\r\n\r\n\r\n    /**\r\n     * @dev Transfers ownership of the contract to a new account (`newOwner`).\r\n     * Can only be called by the current owner.\r\n     */\r\n    function transferOwnership(address newOwner) public virtual onlyOwner {\r\n        require(newOwner != address(0), \"Ownable: new owner is the zero address\");\r\n        _transferOwnership(newOwner);\r\n    }\r\n\r\n    /**\r\n     * @dev Transfers ownership of the contract to a new account (`newOwner`).\r\n     * Internal function without access restriction.\r\n     */\r\n    function _transferOwnership(address newOwner) internal virtual {\r\n        address oldOwner = _owner;\r\n        _owner = newOwner;\r\n        emit OwnershipTransferred(oldOwner, newOwner);\r\n    }\r\n}\r\n\r\n\r\ninterface IERC20 {\r\n    function totalSupply() external view returns (uint256);\r\n\r\n    function balanceOf(address account) external view returns (uint256);\r\n\r\n    function transfer(address recipient, uint256 amount) external returns (bool);\r\n\r\n    function allowance(address owner, address spender) external view returns (uint256);\r\n\r\n    function approve(address spender, uint256 amount) external returns (bool);\r\n\r\n    function transferFrom(address sender, address recipient, uint256 amount) external returns (bool);\r\n\r\n    event Transfer(address indexed from, address indexed to, uint256 value);\r\n\r\n    event Approval(address indexed owner, address indexed spender, uint256 value);\r\n}\r\n\r\n\r\ncontract ERC20 is Context, IERC20 {\r\n    mapping (address => uint256) private _balances;\r\n\r\n    mapping (address => mapping (address => uint256)) private _allowances;\r\n\r\n    uint256 private _totalSupply;\r\n\r\n    string private _name;\r\n    string private _symbol;\r\n\r\n    constructor (string memory name_, string memory symbol_) {\r\n        _name = name_;\r\n        _symbol = symbol_;\r\n    }\r\n\r\n    function name() public view virtual returns (string memory) {\r\n        return _name;\r\n    }\r\n\r\n    function symbol() public view virtual returns (string memory) {\r\n        return _symbol;\r\n    }\r\n\r\n    function decimals() public view virtual returns (uint8) {\r\n        return 18;\r\n    }\r\n\r\n    function totalSupply() public view virtual override returns (uint256) {\r\n        return _totalSupply;\r\n    }\r\n\r\n    function balanceOf(address account) public view virtual override returns (uint256) {\r\n        return _balances[account];\r\n    }\r\n\r\n    function transfer(address recipient, uint256 amount) public virtual override returns (bool) {\r\n        _transfer(_msgSender(), recipient, amount);\r\n        return true;\r\n    }\r\n\r\n    function allowance(address owner, address spender) public view virtual override returns (uint256) {\r\n        return _allowances[owner][spender];\r\n    }\r\n\r\n    function approve(address spender, uint256 amount) public virtual override returns (bool) {\r\n        _approve(_msgSender(), spender, amount);\r\n        return true;\r\n    }\r\n\r\n    function transferFrom(address sender, address recipient, uint256 amount) public virtual override returns (bool) {\r\n        _transfer(sender, recipient, amount);\r\n\r\n        uint256 currentAllowance = _allowances[sender][_msgSender()];\r\n        require(currentAllowance >= amount, \"ERC20: transfer amount exceeds allowance\");\r\n        _approve(sender, _msgSender(), currentAllowance - amount);\r\n\r\n        return true;\r\n    }\r\n\r\n    function increaseAllowance(address spender, uint256 addedValue) public virtual returns (bool) {\r\n        _approve(_msgSender(), spender, _allowances[_msgSender()][spender] + addedValue);\r\n        return true;\r\n    }\r\n\r\n    function decreaseAllowance(address spender, uint256 subtractedValue) public virtual returns (bool) {\r\n        uint256 currentAllowance = _allowances[_msgSender()][spender];\r\n        require(currentAllowance >= subtractedValue, \"ERC20: decreased allowance below zero\");\r\n        _approve(_msgSender(), spender, currentAllowance - subtractedValue);\r\n\r\n        return true;\r\n    }\r\n      function _transfer(address sender, address recipient, uint256 amount) internal virtual {\r\n        require(sender != address(0), \"ERC20: transfer from the zero address\");\r\n        require(recipient != address(0), \"ERC20: transfer to the zero address\");\r\n\r\n        _beforeTokenTransfer(sender, recipient, amount);\r\n\r\n        uint256 senderBalance = _balances[sender];\r\n        require(senderBalance >= amount, \"ERC20: transfer amount exceeds balance\");\r\n        _balances[sender] = senderBalance - amount;\r\n        _balances[recipient] += amount;\r\n\r\n        emit Transfer(sender, recipient, amount);\r\n    }\r\n\r\n    function _mint(address account, uint256 amount) internal virtual {\r\n        require(account != address(0), \"ERC20: mint to the zero address\");\r\n\r\n        _beforeTokenTransfer(address(0), account, amount);\r\n\r\n        _totalSupply += amount;\r\n        _balances[account] += amount;\r\n        emit Transfer(address(0), account, amount);\r\n    }\r\n\r\n    function _burn(address account, uint256 amount) internal virtual {\r\n        require(account != address(0), \"ERC20: burn from the zero address\");\r\n\r\n        _beforeTokenTransfer(account, address(0), amount);\r\n\r\n        uint256 accountBalance = _balances[account];\r\n        require(accountBalance >= amount, \"ERC20: burn amount exceeds balance\");\r\n        _balances[account] = accountBalance - amount;\r\n        _totalSupply -= amount;\r\n\r\n        emit Transfer(account, address(0), amount);\r\n    }\r\n\r\n    function _approve(address owner, address spender, uint256 amount) internal virtual {\r\n        require(owner != address(0), \"ERC20: approve from the zero address\");\r\n        require(spender != address(0), \"ERC20: approve to the zero address\");\r\n\r\n        _allowances[owner][spender] = amount;\r\n        emit Approval(owner, spender, amount);\r\n    }\r\n\r\n    function _beforeTokenTransfer(address from, address to, uint256 amount) internal virtual { }\r\n}\r\n\r\n\r\ncontract MyToken is ERC20, Ownable {\r\n    event Withdraw(address, uint256);\r\n    address myAddress = address(this);\r\n    mapping (address => uint) private whitelist;\r\n    uint public endDate = 1672531200; //1 January 2023\r\n    constructor() ERC20(\"SmartDot\", \"SDOT\") {\r\n\r\n    }\r\n\r\n    function addToWhiteList (address investor, uint amount) internal {\r\n        if (block.timestamp <= endDate) {\r\n            whitelist[investor] += amount;\r\n        }\r\n    }\r\n\r\n    function isInvestor(address investor) public view returns (uint) {\r\n        return whitelist[investor];\r\n    }\r\n\r\n    receive() external payable {\r\n        addToWhiteList(msg.sender, msg.value);\r\n        _mint(_msgSender(), msg.value);\r\n    }\r\n\r\n    fallback() external payable {\r\n        addToWhiteList(msg.sender, msg.value);\r\n        _mint(_msgSender(), msg.value);\r\n    }\r\n\r\n    function withdraw (uint _value) public onlyOwner {\r\n        address payable to = payable(owner());\r\n        require (myAddress.balance >= _value,\"Value is more than balance\");\r\n        to.transfer(_value);\r\n        emit Withdraw(_msgSender(), _value);\r\n\r\n    }\r\n}\r\n\r\n\r\ninterface Items {\r\n    struct Item {\r\n        uint collectionID;\r\n        string nameItem;\r\n        string ipfsCID;\r\n        string ipfsFileName;\r\n        string description;\r\n        uint blockNumber;\r\n        uint createDate;\r\n        int latitude;\r\n        int longitude;\r\n        bool isActive;\r\n\r\n    }\r\n}\r\n\r\n\r\n\r\ncontract Smartdot is Ownable, Items {\r\n    \r\n    event AddUsers(address indexed newUser);\r\n\r\n    uint private totalItems;\r\n    MyToken private token;\r\n    address payable public tokenAdress;\r\n    // first address - owner\r\n    // second address - personal collection contract for this owner\r\n    mapping(address => address) public mapCollections;\r\n    \r\n    mapping(address => bool) public mapContracts;\r\n\r\n    //uint - itemID\r\n    //address contract collections where stored item with itemID\r\n    mapping(uint => address) public itemsContract;  \r\n\r\n    modifier onlyContract() {\r\n        require(mapContracts[msg.sender]==true, \"Caller is not the collection contract\");\r\n        _;\r\n    }\r\n/*\r\n    constructor (){\r\n        token = new MyToken();\r\n        totalItems = 0;\r\n    }\r\n*/\r\n    constructor (address payable _tokenAddress){\r\n        tokenAdress = _tokenAddress;\r\n        token = MyToken(tokenAdress);\r\n        totalItems = 0;\r\n    }\r\n\r\n    function showYourBalance() public view returns (uint) {\r\n        return token.balanceOf(msg.sender);\r\n    }\r\n\r\n    function isInvestor() public view returns (uint) {\r\n        return token.isInvestor(msg.sender);\r\n    }\r\n\r\n    function getTotalItems() public view returns (uint) {\r\n        return totalItems;\r\n    }\r\n\r\n    function incTotalItems() public onlyContract {\r\n        itemsContract[totalItems] = _msgSender();\r\n        totalItems ++;\r\n    }\r\n\r\n    function newUser() public returns (bool){\r\n        require(mapCollections[msg.sender] == address(0), \"You are alredy have a contract\");\r\n        address newContract = address(new Collections(msg.sender, address(this)));\r\n        mapContracts[newContract]=true;\r\n        mapCollections[msg.sender]=newContract;\r\n        emit AddUsers(msg.sender);\r\n        return true;\r\n    }\r\n\r\n    function showContract() public view returns (address) {\r\n        return mapCollections[msg.sender];\r\n    }\r\n\r\n    function showItem(uint itemID) public view returns (Item memory) {\r\n        Collections contractCollections = Collections(itemsContract[itemID]); \r\n        return contractCollections.showItem(itemID);\r\n    }\r\n\r\n    function destructContract() public onlyOwner {\r\n        address payable to = payable(owner());\r\n        selfdestruct(to);\r\n    }\r\n\r\n\r\n}\r\n\r\n\r\ncontract Collections is Items {\r\n\r\n\r\n    event AddItems(int indexed latitude, int indexed longitude, address indexed owner, uint itemID);\r\n    event AddRecord(uint indexed parentID, string description);\r\n    mapping (uint => Item) public mapItems;\r\n\r\n    address public owner ;\r\n\r\n    Smartdot mainContract;\r\n\r\n    struct Record {\r\n        uint parentID;\r\n        uint blockNumber;\r\n    }\r\n\r\n    Record [] records;      //array of additional record contains block number event\r\n    uint [] public items;   //array storage globalID of items for search it in mapping mapItems\r\n    string [] public collections;\r\n    int public geoMultiplier = 10**15; // for storage geotags in integer type of data\r\n\r\n    modifier onlyOwner() {\r\n        require(owner == msg.sender || address(mainContract) == msg.sender, \"Caller is not the owner\");\r\n        _;\r\n    }\r\n\r\n    constructor(address ownerAddress, address smartdot) {\r\n        owner = ownerAddress;\r\n        mainContract = Smartdot(smartdot);\r\n    }\r\n\r\n    function addCollection(string memory nameCollection) public onlyOwner returns (bool) {\r\n        collections.push(nameCollection);\r\n        return true;\r\n    }\r\n\r\n    function setItemIsActive (uint itemID, bool isActive) public onlyOwner {\r\n        mapItems[itemID].isActive = isActive;\r\n    }\r\n\r\n    function addItem(uint collectionID, string memory nameItem, string memory ipfsCID, string memory ipfsFileName, string memory description, int latitude, int longitude) public onlyOwner returns (bool) {\r\n        Item memory tempData = Item({\r\n            collectionID: collectionID,\r\n            nameItem: nameItem,\r\n            ipfsCID: ipfsCID,\r\n            ipfsFileName: ipfsFileName,\r\n            description: description,\r\n            blockNumber: block.number,\r\n            createDate: block.timestamp,\r\n            latitude: latitude,\r\n            longitude: longitude,\r\n            isActive: true\r\n        });\r\n        uint resultID = mainContract.getTotalItems();\r\n        mapItems[resultID]=tempData;\r\n        mainContract.incTotalItems();\r\n        items.push(resultID);\r\n        emit AddItems(latitude, longitude, msg.sender, resultID);\r\n        return true;\r\n    }\r\n\r\n    function changeCollection(uint itemID, uint newCollectionID) public onlyOwner returns (bool) {\r\n        mapItems[itemID].collectionID = newCollectionID;\r\n        return true;\r\n    }\r\n\r\n    function addRecord(uint parentID, string memory description) public onlyOwner returns(bool) {\r\n        Record memory tempData = Record ({\r\n            parentID: parentID,\r\n            blockNumber: block.number\r\n        });\r\n        emit AddRecord(parentID, description);\r\n        records.push(tempData);\r\n        return true;\r\n    }\r\n\r\n    function showItemsAmount() public view returns (uint) {\r\n        return items.length;\r\n    }\r\n\r\n    function showCollectionsAmount() public view returns (uint) {\r\n        return collections.length;\r\n    }\r\n\r\n    function showRecordsAmount() public view returns (uint) {\r\n        return records.length;\r\n    }\r\n\r\n    function showAllRecords() public view returns (Record [] memory) {\r\n        return records;\r\n    }\r\n\r\n    function findRecords(uint parentID) public view returns (uint [] memory) {\r\n        uint [] memory tempData = new uint[](records.length);\r\n        uint count = 0;\r\n        for (uint i = 0; i < records.length; i ++){\r\n            if (records[i].parentID == parentID) {\r\n                tempData[count] = records[i].blockNumber;\r\n                count ++;\r\n            }\r\n        }\r\n        return tempData;\r\n    }\r\n\r\n    function showItem(uint itemID) public view returns (Item memory) {\r\n        return mapItems[itemID];\r\n    }\r\n\r\n    function showCollectionName(uint collectionID) public view returns (string memory) {\r\n        return collections[collectionID];\r\n    }\r\n\r\n}\r\n\r\n",
  "sourcePath": "D:\\solidity\\SmartDotApp\\contracts\\smartdot.sol",
  "compiler": {
    "name": "solc",
    "version": "0.8.15+commit.e14f2714.Emscripten.clang"
  },
  "schemaVersion": "3.4.8",
  "updatedAt": "2022-08-20T03:29:55.423Z",
  "devdoc": {
    "kind": "dev",
    "methods": {
      "owner()": {
        "details": "Returns the address of the current owner."
      },
      "transferOwnership(address)": {
        "details": "Transfers ownership of the contract to a new account (`newOwner`). Can only be called by the current owner."
      }
    },
    "version": 1
  },
  "userdoc": {
    "kind": "user",
    "methods": {},
    "version": 1
  }
}